:020000040800F2
:10000000A00400201D130008F9120008FB120008CC
:10001000FD120008FF120008011300080000000094
:1000200000000000000000000000000003130008B2
:10003000051300080000000007130008091300085A
:100040002D13000831130008351300083913000878
:100050003D13000841130008451300084913000828
:100060004D130008511300085513000859130008D8
:100070005D13000861130008651300086913000888
:100080006D13000871130008751300087913000838
:100090007D130008811300088513000889130008E8
:1000A0008D13000891130008951300089913000898
:1000B0009D130008A1130008A5130008A913000848
:1000C000AD130008B1130008B5130008B9130008F8
:1000D000BD130008C1130008C5130008C9130008A8
:1000E000CD130008D113000800000000D51300084C
:1000F000D9130008DD130008E1130008E513000818
:10010000E9130008ED130008F1130008F5130008C7
:10011000F9130008FD130008011400080514000875
:10012000091400080D140008111400081514000823
:10013000191400081D1400082114000825140008D3
:1001400000000000000000000000000000000000AF
:10015000291400082D140008311400083514000873
:10016000391400083D140008411400084514000823
:10017000491400084D140008511400080000000044
:1001800055140008591400085D1400086114000893
:1001900065140008691400086D1400087114000843
:1001A00075140008791400087D14000881140008F3
:1001B00085140008891400088D14000891140008A3
:1001C00095140008991400089D140008A114000853
:1001D000A5140008A9140008AD140008B114000803
:1001E000B5140008B9140008BD140008C1140008B3
:1001F000C5140008C9140008CD140008D114000863
:10020000D5140008D9140008DD140008E114000812
:10021000E5140008E9140008ED140008F1140008C2
:10022000F5140008F9140008FD140008000000008F
:100230000115000805150008000000000915000858
:100240000D150008111500081515000819150008EE
:100250001D1500082115000825150008291500089E
:100260002D1500083115000835150008391500084E
:100270003D15000841150008451500080000000064
:10028000491500084D150008511500080000000030
:100290000000000055150008F8B504002BD02078A8
:1002A000DFF8A454C10711D52869A96A00F0380005
:1002B000102805D0182804BF01F0030102296BD1D2
:1002C00029688A0302D56068002814D0217841F299
:1002D0000406880720D52869A96A10F0380005D0DF
:1002E000182808BF11F0030F40F0A18029684A07C1
:1002F00003D5E068002800F0238200F050FAB042F5
:1003000080F08E802069402840F08380686820F467
:100310007C3040F4003068602178C80622D5286916
:10032000A96A00F03800082806D0182804BF01F098
:100330000301012940F0B5802868C10503D5E269B1
:10034000802A40F0FD8100F02AFAB04280F0A180BE
:10035000206A202840F09680686820F0F84040F03D
:100360008040686021780A0740F1D58060690028E4
:1003700000F0C180696F41F00101696700F01EFA69
:100380000646686F810700F1C68000F017FA801BEF
:100390000328F6D30320F2BD6068B0F5803F0FD08C
:1003A00038B9296821F480312960286820F4802038
:1003B00009E0B0F5A02F08D1296841F48021296017
:1003C000286840F48030286007E02A6822F48032F0
:1003D0002A60296821F480212960606860B100F0FA
:1003E000EDF90646296888033FF570AF00F0E6F99D
:1003F000801B6528F6D3CDE700F0E0F906462868B3
:1004000081037FF563AF00F0D9F9801B6528F6D32F
:10041000C0E7696821F47C3141EA003169607BE71B
:100420006868216920F0FE4040EA016073E7E068F7
:10043000C0B1296821F019010843286000F0BEF915
:1004400007462868410705D400F0B8F9C01B032807
:10045000F7D39FE700F0A3F9B042E1D2206940282A
:10046000D7D153E7286840084000286000F0A6F97B
:10047000074629684807D2D500F0A0F9C01B032819
:10048000F7D387E7696821F0F84141EA8061696044
:1004900068E7E868216A20F07C5040EA0160E86083
:1004A00060E7E069B8B1296841F08001296000F097
:1004B00085F907462868C10505D400F07FF9C01BFF
:1004C0000328F7D366E700F06AF9B042E1D2206A68
:1004D0002028D7D140E7286820F08000286000F06D
:1004E0006DF906462968C805DAD500F067F9801B62
:1004F0000328F7D34EE7686F40084000686700F0B4
:100500005DF90646686F810705D500F057F9801B35
:100510000328F7D33EE721788A0621D5A06978B170
:10052000296841F48051296000F048F9064628689E
:10053000810415D400F042F9801B0328F7D329E782
:10054000286820F48050286000F038F906462968B1
:10055000880405D500F032F9801B0328F7D319E78A
:100560002078410748D5794F3A6842F480723A6062
:1005700000F024F906463868C10505D400F01EF9DC
:10058000801B6528F7D305E7A068012804D1286FF0
:1005900040F00100286713E008B9286F09E005283A
:1005A000286F06D140F004002867296F41F001014F
:1005B00005E0400840002867296F21F00401296701
:1005C000A06841F2893658B100F0F8F80746286F64
:1005D000810711D400F0F2F8C01BB042F7D3D9E67E
:1005E00000F0ECF80746286F810705D500F0E6F823
:1005F000C01BB042F7D3CDE6606A002800F0A280AD
:10060000296901F03801182974D00228286820F0DF
:100610008070286062D100F0D1F806462968880110
:1006200005D500F0CBF8801B0328F7D3B2E6A86A03
:10063000A26A4749E36A0840104340EA0310A862EF
:10064000616B206BA26B491E4902401EC0F308007B
:10065000521E01F47E4112040843E16B02F4FE02D3
:100660001043491E090601F0FE4108432863E86A69
:1006700040084000E862696BA06C6FF3CF0141EA6B
:10068000C0016963E96A206C21F00C010143E96251
:10069000E96A606C21F002010143E962E96A41F410
:1006A0008031E962E86A40F40030E862E96A41F4C6
:1006B0008021E962E86A40F00100E862296841F0BF
:1006C0008071296000F07AF804462868810139D4E5
:1006D00000F074F8001B0328F7D35BE600F06EF817
:1006E0000446296888012DD500F068F8001B03280E
:1006F000F7D34FE60128A96A2A6B21D0A36A01F03B
:100700000300984202BFC1F30510E16A884217D185
:10071000236BC2F308005B1E984201BFC2F3462060
:10072000616B491E88420BD1A16BC2F30640491E82
:10073000884201BFC2F30660E16B491E884201D0C6
:100740000120F2BD0020F2BD0044025800480258CA
:100750000CFCFFFF38B50320134D00F042F800F009
:100760008DF91249124A0B68C3F30323D45C09685C
:1007700001F00F01525C04F01F04E0400D4C02F048
:100780001F0220FA02F3236028600F2000F010FA05
:1007900008B1012032BD00F02DFA002032BD06481C
:1007A0000068000C704700000C000020184402583C
:1007B000C0110008100000200010005C01484068D3
:1007C000704700BF000000200901020002D4244845
:1007D00081547047234B02F00F021A4402F8041CA4
:1007E0007047214B4FF6FF021968000200F4E060E9
:1007F000114008431D4908431860704770B51A4BF3
:100800001C68C4F302230124C3F10705052D2EBF84
:100810000F2504FA05F56D1E1E1D072E34BF00239B
:10082000DB1E2940994004FA03F35B1E1A40114372
:10083000BDE87040C8E70000401EB0F1807F10B5F1
:1008400001D3012010BD0A4C0F2160604FF0FF3032
:10085000FFF7BAFF00220721A2600020216010BD2F
:1008600000E400E018ED00E00CED00E00000FA0507
:1008700010E000E02DE9F0410400884656D0DFF892
:100880000C63306800F00F00404502D200F0EBF836
:100890007AD12078DFF8F852410706D52069AA6995
:1008A00002F07002824200F0D7F82078010706D5E6
:1008B0006069EA6902F07002824200F0C6F82078AE
:1008C000C10606D5A069EA6902F4E062824200F03E
:1008D000B5F82078810606D5E0692A6A02F0700230
:1008E000824200F0A4F82078810706D5E068AA6962
:1008F00002F00F02824200F093F82078C10731D550
:10090000AA69A06822F470620243AA6160680228A2
:1009100002D129688A0308E0032802D129688A01E4
:1009200003E0012803D12968CA0503D42CE02B6811
:10093000590729D52A69D20840EAC2002861FFF781
:100940003DFF07462869616800F03800B0EBC10F31
:1009500008D0FFF733FFC01B41F289329042F1D338
:1009600003205BE02078810706D5E068AA6902F0E1
:100970000F02904200F054F8306800F00F008045FC
:1009800004D200F070F801D0012047E02078410740
:1009900006D52069AA6902F07002904200F05CF866
:1009A0002078010706D56069EA6902F0700290427A
:1009B00000F04BF82078C10606D5A069EA6902F478
:1009C000E062904200F03AF82078810606D5E069AE
:1009D0002A6A02F07002904200F029F800F04EF806
:1009E000AA69DFF8C011C2F303228B5CAC69DFF89F
:1009F000A45104F00F04095D03F01F03D840DFF891
:100A0000983101F01F0120FA01F21A602860DFF826
:100A100090010068BDE8F04100F0CAB8BDE8F0817F
:100A200004D2A969090940EA0110A861704704D2FB
:100A3000296A21F0700108432862704704D2E969ED
:100A400021F4E0610843E861704704D2E96921F0CC
:100A500070010843E861704704D2A96921F0700170
:100A60000843A86170473168090948EA01113160FB
:100A7000326802F00F0242457047000030B5444B27
:100A80004648196911F0380104D010290AD01829F4
:100A90000AD069E01A68940667D51968C1F3C101E4
:100AA000C84030BD404830BD9C6A996ADD6A5A6BC7
:100AB00005F00105C1F30511C2F3CC02554300292D
:100AC00000EE105AB8EE400A4CD014F0030400EEC9
:100AD000901AF8EE600A02D0022C20D022E01968A9
:100AE0009FED261A20EE010A8A0608D51968C1F37F
:100AF000C101C84000F03CF8C1EE200A03E09FEDC0
:100B0000202AC2EE200A186BF7EE001A00F02EF829
:100B100031EE000A70EE211A20EEA10A13E09FEDDB
:100B2000192A01E09FED182A186BDFED141AC2EEA6
:100B3000200A00F01BF800EE211AB7EE000A31EE91
:100B4000000A20EE800A186BC0F34620401C00EE1D
:100B5000900AF8EE600A80EE200ABCEEC00A10EEA1
:100B6000100A30BD002030BD104830BDC0F3080071
:100B700001EE100AB8EE411A70470000000000397B
:100B80000024744C20BCBE4B0024744A0020005248
:100B9000004402580C000020100000200090D003F8
:100BA00008000020C011000840787D0100093D00C8
:100BB00038B504460D4D2878A8B10D4A4FF47A7126
:100BC0001368B1FBF0F0B3FBF0F0FFF735FE50B95E
:100BD000102C08D2002221464FF0FF30FFF70EFE06
:100BE000AC60002032BD012032BD00BF00000020FB
:100BF0000C00002081B00648016841F0020101604C
:100C0000006800F002000090009901B0704700BF3A
:100C1000F44402582DE9F84F00274FF0B042DFF8B6
:100C2000E031DFF8E08105460E4635E0DFF8D841D7
:100C3000A54214BF0A2409248C4044EA0E047349D7
:100C400041F82C401C68C14301EA040C7468E403B9
:100C500048BF40EA0C0CC3F800C05C6801EA040C11
:100C60007468A40348BF40EA0C0CC3F804C01468BD
:100C700001EA040C7468E40248BF40EA0C0CC2F8B4
:100C800000C0546801EA040C7168890248BF40EA58
:100C90000C0CC2F804C07F1C316831FA07F000F078
:100CA000A0800124BC4014EA0100F4D04FEA470CB4
:100CB000032101FA0CF16FEA010E7168012918BFD6
:100CC000022903D0112918BF122912D1A968D6F818
:100CD0000C900EEA010109FA0CF949EA0101A96038
:100CE000696821EA04047168C1F30011B9400C433A
:100CF0006C60E968B4680EEA010104FA0CF421435F
:100D0000E9607468B900022C18BF122C14D1FC08D9
:100D100001F01C0905EB84044FF00F0B0BFA09FBE3
:100D2000D4F820A02AEA0B0AD6F810B00BFA09F979
:100D300049EA0A09C4F820902C680EEA040E3479B6
:100D400004F0030404FA0CF444EA0E042C60746802
:100D5000E400A0D5D8F800404FEA970C01F00C0150
:100D60004FF00F0E0EFA01FE44F00204C8F80040E6
:100D7000D8F8004004F002040094009C234C54F87E
:100D80002C4024EA0E0E224CA54208BF002427D096
:100D9000204CA54208BF012422D01F4CA54208BF09
:100DA00002241DD01D4CA54208BF032418D01C4CA2
:100DB000A54208BF042413D01A4CA54208BF05243D
:100DC0000ED0194CA54208BF062409D0174CA542E5
:100DD00008BF072404D0164CA5427FF427AF08248F
:100DE0002AE7BDE8F18F02B90904816170474269C1
:100DF00001EA0203914341EA034181617047000027
:100E000080000058F4440258002402580804005896
:100E1000000002580004025800080258000C025852
:100E2000001002580014025800180258001C025802
:100E30000020025838B586B0424DFFF78BFC00F019
:100E400036F81422002101A800F084F83E48002260
:100E5000016841F004010160006800F004000090A6
:100E6000009928464021FFF7BEFF40210122019151
:100E70000023029201A9039328460493FFF7CAFEB8
:100E800040212846FFF7B3FF642400F06DF8642189
:100E9000642290FBF1F102FB1100401C00F0B2F85B
:100EA000641EF2D140212846FFF7A1FFE8E780B594
:100EB0009CB04C22002109A800F04CF8202200210F
:100EC00001A800F047F8022000F0BAF800200090D6
:100ED0001E48016849084900016002681C4802F088
:100EE00001020092016821F4404141F48041016017
:100EF000026802F440420092009902689304FCD513
:100F0000022101220991402300210C920D9309A88E
:100F10001291FFF7C1F908B172B6FEE73F21002236
:100F200001910121029201A8039204920592069276
:100F300007920892FFF79EFC08B172B6FEE71DB05B
:100F400000BD000000080258E04402582C0400587C
:100F50001848025810B5044610460A460146204675
:100F600000F092F8204610BDF0B42249224AD1F890
:100F7000807056681078214C214D6FF0004320BBE3
:100F8000082005FB064637461E46B7FBF6F6401E10
:100F900003FB1676F5D10F46102005FB06469C464E
:100FA000B6FBFCFC03FB1C663E601E4657F804CBF8
:100FB00005FB0C4CBCFBF6F603FB16C6401E47F8BF
:100FC000046BEAD1CF6F0120107005FB06461C466A
:100FD00007F01F07B6FBF4F451F8270003FB146673
:100FE00041F82760C1F88000566020F04040F0BC16
:100FF000704700001C000020140000205FF36E3CCE
:101000000D66190010B50446FFF7AEFF643090FB83
:10101000F4F010BD00000EE002684368024408309E
:101020005FEAC37C44BF4B445B1E52F804CB43F8D9
:1010300004CB091FF9D150F8041B0029ECD17047EB
:1010400038B5DFF84040A1684A0708D4A36803F028
:101050000703834201D0012032BD002032BDA168C8
:10106000C90840EAC100A060FFF7A8FB0546206858
:101070008104F2D4FFF7A2FB401B40F2E932904218
:10108000F5D3E8E70448025862F30F2262F31F42E7
:10109000401810F0030308D0C91A1FD3DB0748BF5C
:1010A00000F8012D28BF20F8022D130030B414469B
:1010B0001546103928BF20E93C00FAD8490728BF57
:1010C00020E90C0048BF40F8042D890028BF20F813
:1010D000022D48BF00F8012D30BC7047C91818BF59
:1010E00000F8012DCB0728BF00F8012D7047000044
:1010F00030B52848284A016841F470010160106841
:1011000000F00F00072805D211680909090141F014
:1011100007011160214900240B68214843F00103B5
:101120000B600C610D6805400D60136803F00F0340
:10113000072B05D914682409240144F0070414601E
:10114000002000238861174AC86117480B62886233
:101150001648CA62002208634B638863CA63086446
:1011600013484A640B6823F480230B600A66016805
:10117000090C0904B1F1005F02D201220D4802609E
:1011800043F2D2010C4B19604FF000640B4A14601B
:1011900030BD000088ED00E00020005200440258FD
:1011A0007FEDF6EA0000FF01000202028002010169
:1011B0000010005C088100510040005208ED00E082
:1011C00000000000010203040102030406070809ED
:1011D00030B4002512E050F8042BD30744BF4A4432
:1011E000521E091F042942F8045BFAD213468C07E9
:1011F00044BF15809B1CC90748BF1D7050F8041BD5
:101200000029E8D130BC704710B50749794418313E
:10121000064C7C44163404E00A68081D11448847D3
:101220000146A142F8D110BD2C0000004C00000086
:101230004EF68851CEF20001086840F47000086054
:10124000BFF34F8FBFF36F8F4FF00070E1EE100AC6
:10125000704700007DFFFFFF840000001C0000209D
:1012600000000000B3FDFFFF1C0000007000000044
:10127000000000200000000000F00DF8002801D060
:10128000FFF7C2FFAFF300800020AFF30080FFF74D
:10129000D1FD00F002F80120704700F001B8000015
:1012A0000746384600F002F8FBE7000080B5AFF3D0
:1012B0000080024A11001820ABBEFBE726000200A6
:1012C0000548014603B4684680F30988AFF30080FF
:1012D000FFF7AEFFFFF7D0FFA5EDF5FE0100000020
:1012E00000000000100000000090D0030090D00328
:1012F0000000000001000000FEE7FEE7FEE7FEE759
:10130000FEE770477047704700F000B80248416838
:1013100002788A1842607047000000200148804728
:1013200001480047F1100008C1120008FFF7FEBF96
:10133000FFF7FEBFFFF7FEBFFFF7FEBFFFF7FEBFE1
:10134000FFF7FEBFFFF7FEBFFFF7FEBFFFF7FEBFD1
:10135000FFF7FEBFFFF7FEBFFFF7FEBFFFF7FEBFC1
:10136000FFF7FEBFFFF7FEBFFFF7FEBFFFF7FEBFB1
:04000005080012C11C
:00000001FF
