:020000040800F2
:1000000018040020411B0008051B0008071B0008FE
:10001000091B00080B1B00080D1B00080000000056
:100020000000000000000000000000000F1B00089E
:10003000111B000800000000131B0008151B00081E
:10004000511B0008551B0008591B00085D1B0008C8
:10005000611B0008651B0008691B00086D1B000878
:10006000711B0008751B0008791B00087D1B000828
:10007000811B0008851B0008891B00088D1B0008D8
:10008000911B0008951B0008991B00089D1B000888
:10009000A11B0008A51B0008A91B0008AD1B000838
:1000A000B11B0008B51B0008B91B0008BD1B0008E8
:1000B000C11B0008C51B0008C91B0008CD1B000898
:1000C000D11B0008D51B0008D91B0008DD1B000848
:1000D000E11B0008E51B0008E91B0008ED1B0008F8
:1000E000F11B0008F51B000800000000F91B0008C8
:1000F000FD1B0008011C0008051C0008091C000865
:100100000D1C0008111C0008151C0008191C000813
:100110001D1C0008211C0008251C0008291C0008C3
:100120002D1C0008311C0008351C0008391C000873
:100130003D1C0008411C0008451C0008491C000823
:1001400000000000000000000000000000000000AF
:100150004D1C0008511C0008551C0008591C0008C3
:100160005D1C0008611C0008651C0008691C000873
:100170006D1C0008711C0008751C000800000000C0
:10018000791C00087D1C0008811C0008851C0008E3
:10019000891C00088D1C0008911C0008951C000893
:1001A000991C00089D1C0008A11C0008A51C000843
:1001B000A91C0008AD1C0008B11C0008B51C0008F3
:1001C000B91C0008BD1C0008C11C0008C51C0008A3
:1001D000C91C0008CD1C0008D11C0008D51C000853
:1001E000D91C0008DD1C0008E11C0008E51C000803
:1001F000E91C0008ED1C0008F11C0008F51C0008B3
:10020000F91C0008FD1C0008011D0008051D000860
:10021000091D00080D1D0008111D0008151D00080E
:10022000191D00081D1D0008211D00080000000008
:10023000251D0008291D0008000000002D1D0008D4
:10024000311D0008351D0008391D00083D1D00083E
:10025000411D0008451D0008491D00084D1D0008EE
:10026000511D0008551D0008591D00085D1D00089E
:10027000611D0008651D0008691D000800000000E0
:100280006D1D0008711D0008751D000800000000AC
:1002900000000000791D00082DE9F8430400002C3F
:1002A00001D101207CE32078C00740F18280DFF893
:1002B000F406056815F03805DFF8EC06D0F8009074
:1002C000102D05D0182D0DD119F00300022809D1E9
:1002D000DFF8D806006880036BD56068002868D115
:1002E00001205DE36068B0F5803F08D1DFF8BC060F
:1002F000006850F48030DFF8B416086038E06068B9
:10030000002810D1DFF8A406006830F48030DFF850
:100310009C160860DFF89406006830F48020DFF84F
:100320008C16086024E06068B0F5A02F10D1DFF8CB
:100330007C06006850F48020DFF870160860DFF853
:100340006C06006850F48030DFF8601608600FE03B
:10035000DFF85806006830F48030DFF85016086087
:10036000DFF84806006830F48020DFF840160860A7
:10037000606800280ED000F02DFB0600DFF82C0688
:100380000068800315D400F025FB801B6528F5D399
:10039000032005E300F01EFB0600DFF810060068EE
:1003A000800306D500F016FB801B6528F5D30320DB
:1003B000F6E22078800740F1A580DFF8E8050568BF
:1003C00015F03805DFF8E005D0F80090002D04D0D6
:1003D000182D38D119F0030F35D1DFF8D00500689A
:1003E000400704D5E068002801D10120D8E200F0E0
:1003F00026FB41F20401884219D2206940280AD123
:10040000DFF8AC05006830F47C3050F40030DFF8E1
:10041000A015086016E0DFF89805006830F47C301D
:10042000216950EA0130DFF8881508600AE0DFF83A
:100430008005006830F0FE40216950EA0160DFF875
:10044000701508605EE0E068002844D0DFF85C05C5
:10045000016831F01901E0680143DFF850050160DF
:1004600000F0B8FA0600DFF844050068400706D43B
:1004700000F0B0FA801B0328F5D3032090E200F0CF
:10048000DEFA41F20401884219D2206940280AD1DB
:10049000DFF81C05006830F47C3050F40030DFF8E1
:1004A0001015086016E0DFF80805006830F47C30AD
:1004B000216950EA0130DFF8F81408600AE0DFF83B
:1004C000F004006830F0FE40216950EA0160DFF876
:1004D000E014086016E0DFF8D4040068400840002B
:1004E000DFF8C814086000F075FA0600DFF8BC04F5
:1004F0000068400706D500F06DFA801B0328F5D38D
:1005000003204DE22078C00640F1A480DFF8940477
:10051000056815F03805DFF89004D0F80090082D34
:1005200005D0182D39D119F00300012835D1DFF895
:100530007C040068C00504D5E069802801D0012052
:100540002EE200F07CFA41F20401884219D2206ABE
:1005500020280AD1DFF85804006830F0F84050F045
:100560008040DFF84C14086016E0DFF844040068AF
:1005700030F0F840216A50EA8160DFF834140860F6
:100580000AE0DFF83004006830F07C50216A50EA5D
:100590000160DFF8201408605CE0E069002842D0C8
:1005A000DFF80804006850F08000DFF800140860ED
:1005B00000F010FA0600DFF8F4030068C00506D466
:1005C00000F008FA801B0328F5D30320E8E100F0CF
:1005D00036FA41F20401884219D2206A20280AD151
:1005E000DFF8CC03006830F0F84050F08040DFF8CE
:1005F000C013086016E0DFF8B803006830F0F84078
:10060000216A50EA8160DFF8A81308600AE0DFF889
:10061000A403006830F07C50216A50EA0160DFF8E2
:100620009413086016E0DFF88403006830F080005F
:10063000DFF87813086000F0CDF90600DFF86C03EE
:100640000068C00506D500F0C5F9801B0328F5D366
:100650000320A5E12078000730D56069002816D076
:10066000DFF85403006850F00100DFF84C13086015
:1006700000F0B0F90600DFF84003006880071DD4E1
:1006800000F0A8F9801B0328F5D3032088E1DFF8E8
:100690002803006840084000DFF81C13086000F0E1
:1006A00099F90600DFF810030068800706D500F00E
:1006B00091F9801B0328F5D3032071E1207880068F
:1006C0002AD5A069002813D0B848006850F480509B
:1006D000B649086000F07EF90600B448006880045E
:1006E0001AD400F077F9801B0328F6D3032057E1D2
:1006F000AE48006830F48050AC49086000F06AF9F8
:100700000600AA480068800406D500F063F9801B43
:100710000328F6D3032043E1207840076CD5A7488F
:10072000006850F48070A549086000F053F9050096
:10073000A2480068C00506D400F04CF9401B6528AB
:10074000F6D303202CE1A068012806D19C4800685C
:1007500050F001009A4908602BE0A06800280CD1F5
:100760009748006840084000954908609448006830
:1007700030F00400924908601BE0A06805280CD105
:100780008F48006850F004008D4908608C4800686C
:1007900050F001008A4908600BE089480068400871
:1007A0004000874908608648006830F004008449AA
:1007B0000860A06800280FD000F00CF906008048FF
:1007C0000068800718D400F005F9801B41F28931D8
:1007D0008842F4D30320E3E000F0FCF806007848F8
:1007E0000068800708D500F0F5F8801B41F28931D8
:1007F0008842F4D30320D3E0606A002800F0CF8061
:100800006848006810F03800182800F09A80606A84
:10081000022840F082806548006830F080706349AB
:10082000086000F0D7F8050060480068800106D530
:1008300000F0D0F8401B0328F6D30320B0E05A485C
:10084000016860480140A06A0143E06A51EA001172
:1008500055480160206B401EC005C00D616B491EEC
:10086000490211F47E410843A16B491E090411F4A9
:10087000FE010843E16B491E090611F0FE410843E1
:100880005149086051480068400840004F490860DD
:100890004F4800686FF3CF00A16C50EAC1004C498B
:1008A00008604A48016831F00C01206C0143474858
:1008B00001604648016831F00201606C0143434821
:1008C00001604248006850F48030404908603F4869
:1008D000006850F400303D4908603C48006850F41E
:1008E00080203A4908603948006850F001003749D3
:1008F00008602E48006850F080702C49086000F0B5
:1009000069F8060029480068800148D400F062F8C0
:10091000801B0328F6D3032042E02448006830F00F
:1009200080702249086000F055F806001F480068F2
:10093000800134D500F04EF8801B0328F6D3032045
:100940002EE01948006807001F4800688046606A6A
:10095000012822D017F00300A16A88421DD1C7F3F5
:100960000510E16A884218D15FEAC850C00D216BBA
:10097000491E884211D1C8F34620616B491E884246
:100980000BD1C8F30640A16B491E884205D1C8F3BC
:100990000660E16B491E884201D0012000E0002082
:1009A000BDE8F2831044025828440258004402581B
:1009B000044402580C440258744402580048025837
:1009C000704402580CFCFFFF304402582C4402587B
:1009D0003444025801480068704700BF0C000020F2
:1009E00010B5032000F0A1F800F050FA0400DFF881
:1009F0005800DFF858100968C1F30321405C10F07B
:100A00001F00C440DFF84000DFF84010096811F013
:100A10000F01405C10F01F002100C140DFF83000E2
:100A20000160DFF8300004600F2000F06DFB00284B
:100A300001D0012002E000F093FB002010BDDFF8A0
:100A400018000068000C7047301B0008184402585A
:100A500008000020040000200010005C10F00703D4
:100A6000DFF804110A684FF6FF010A4052EA032238
:100A7000DFF8F8100A43DFF8F0100A607047DFF87B
:100A8000E8000068C0F302207047000010B40200C4
:100A900012B2002A05D40A01354B040024B21A55BB
:100AA00008E00A01334B040024B214F00F0423447D
:100AB00003F8042C10BC704770B4030013F0070453
:100AC000D4F10700052801D3042001E0D4F1070088
:100AD000251D072D01D2002500E0E51E012616FA8E
:100AE00000F0401E0140A940012010FA05F56D1EDE
:100AF0002A401143080070BC704710B50400601E06
:100B0000B0F1807F01D301200EE0601E1A49086019
:100B10000F215FF0FF30FFF7B9FF00201749086091
:100B2000072017490860002010BD10B50400200000
:100B3000FFF794FF10BDF8B504000D001600FFF795
:100B40009EFF0700320029003800FFF7B5FF0100C3
:100B5000200000B2FFF79AFFF1BD10B5040020009D
:100B6000FFF7CBFF10BD00000CED00E00000FA0520
:100B700000E400E018ED00E014E000E018E000E020
:100B800010E000E0F8B504000D00002C01D10120B8
:100B90007AE1DFF83005006810F00F00A84211D2AA
:100BA000DFF820050068000900012843DFF814156C
:100BB0000860DFF81005006810F00F00A84201D0AF
:100BC000012061E12078400711D5DFF814050068A5
:100BD00010F070002169884209D2DFF8040501682D
:100BE00031F0700120690143DFF8F40401602078DE
:100BF000000711D5DFF8EC04006810F0700061699F
:100C0000884209D2DFF8DC04016831F070016069C4
:100C10000143DFF8D00401602078C00611D5DFF869
:100C2000C404006810F4E060A169884209D2DFF8CA
:100C3000B404016831F4E061A0690143DFF8A40461
:100C400001602078800611D5DFF89C04006810F060
:100C50007000E169884209D2DFF88C04016831F044
:100C60007001E0690143DFF88004016020788007AB
:100C700011D5DFF86C04006810F00F00E1688842BD
:100C800009D2DFF85C04016809090901E068014341
:100C9000DFF84C0401602078C0074DD5DFF8400430
:100CA000016831F47061A0680143DFF83404016029
:100CB0006068022806D1DFF81004006880031CD4A5
:100CC0000120E1E06068032806D1DFF8FC0300683A
:100CD000800112D40120D7E06068012806D1DFF836
:100CE000E8030068C00508D40120CDE0DFF8D80390
:100CF0000068400701D40120C6E0DFF8D003016896
:100D0000C908C90060680143DFF8C0030160FFF74C
:100D100061FE0600DFF8B403006810F03800616877
:100D2000B0EBC10F08D0FFF755FE801B41F28931AF
:100D30008842EFD30320A7E02078800711D5E06830
:100D4000DFF89C13096811F00F01884209D2DFF81F
:100D50009003016809090901E0680143DFF8800395
:100D60000160DFF86003006810F00F00854211D2C7
:100D7000DFF850030068000900012843DFF844133E
:100D80000860DFF84003006810F00F00A84201D0AF
:100D9000012079E02078400711D52069DFF8401361
:100DA000096811F07001884209D2DFF83403016844
:100DB00031F0700120690143DFF8240301602078DD
:100DC000000711D56069DFF81C13096811F0700184
:100DD000884209D2DFF80C03016831F070016069C4
:100DE0000143DFF8000301602078C00611D5A06937
:100DF000DFF8F012096811F4E061884209D2DFF8E7
:100E0000E402016831F4E061A0690143DFF8D40233
:100E100001602078800611D5E069DFF8CC120968FE
:100E200011F07001884209D2DFF8BC02016831F08C
:100E30007001E0690143DFF8B002016000F026F8BC
:100E40000700DFF8B802DFF898120968C1F3032140
:100E5000405C10F01F00C740DFF8A002DFF88012EE
:100E6000096811F00F01405C10F01F003900C1400B
:100E7000DFF864020160DFF85C020760DFF85C0203
:100E8000006800F041F9C0B2F2BD000010B4DFF814
:100E90003C02006810F03800002806D0082815D061
:100EA000102816D0182817D000E1DFF81C020068BF
:100EB000800608D5DFF81802DFF80C422468C4F376
:100EC000C104E04001E0DFF80802F0E0DFF83002A2
:100ED000EDE0DFF83002EAE0DFF81002006810F021
:100EE00003000200DFF804020068C0F305100100EF
:100EF000DFF8FC01006810F001000300DFF8F801E2
:100F00000068C0F3CC0000FB03F002EE100AB8EE5C
:100F1000422AB0EE421A002900F0C680002A03D00F
:100F2000022A72D051D38FE0DFF89C01006880065E
:100F30002BD5DFF89C01DFF890412468C4F3C1048D
:100F4000E04002EE100AF0EE420AB8EE602A02EE2D
:100F5000901AF8EE622A82EE222ADFF898010068E1
:100F6000C005C00D02EE900AF8EE622A9FED513ADC
:100F700081EE033A72EE832AB7EE003A72EE832ACC
:100F800022EE222AF0EE421A1EE002EE101AB8EE0D
:100F9000422ADFED492A82EE822ADFF858010068F2
:100FA000C005C00D02EE900AF8EE622A9FED413AAC
:100FB00081EE033A72EE832AB7EE003A72EE832A8C
:100FC00022EE222AF0EE421A5CE002EE101AB8EE8F
:100FD000422ADFED3A2A82EE822ADFF81801006801
:100FE000C005C00D02EE900AF8EE622A9FED313A7C
:100FF00081EE033A72EE832AB7EE003A72EE832A4C
:1010000022EE222AF0EE421A3CE002EE101AB8EE6E
:10101000422ADFED2B2A82EE822A36480068C0057C
:10102000C00D02EE900AF8EE622A9FED223A81EEA0
:10103000033A72EE832AB7EE003A72EE832A22EE6A
:10104000222AF0EE421A1DE002EE101AB8EE422AF1
:10105000DFED1A2A82EE822A26480068C005C00DFC
:1010600002EE900AF8EE622A9FED123A81EE033A00
:1010700072EE832AB7EE003A72EE832A22EE222A1B
:10108000F0EE421A1B480068C0F34620401C02EEF6
:10109000100AB0EE420AB8EE402A81EE822ABCEE77
:1010A000C22A12EE100A00E0002000E0144810BC32
:1010B00070470000000000460024744C0024744A6D
:1010C00020BCBE4B0020005200440258104402587D
:1010D0000090D00304000020080000200000002041
:1010E000184402581C44025820440258284402580C
:1010F0002C4402583044025834440258301B000833
:1011000000093D0040787D0110B5040011480078C9
:10111000002801D101201CE04FF47A700D490978B4
:10112000B0FBF1F00C490968B1FBF0F0FFF715FDD9
:10113000002801D001200CE0102C09D2002221004F
:101140005FF0FF30FFF7F7FC04480460002000E088
:10115000012010BD1000002004000020000000202D
:1011600081B00748006850F0020005490860044853
:10117000006810F002000090009801B0704700BFB6
:10118000F4440258F8B403000025DFF860620868F0
:10119000E840002800F00D8108680127AF40384082
:1011A0000200002A00F003814868012808D048683E
:1011B000022805D04868112802D04868122824D196
:1011C0009F685FF0030C2800C0B240001CFA00FCCE
:1011D00037EA0C07D1F80CC02800C0B240001CFA56
:1011E00000FC5CEA07079F6058685FF0010C1CFA7E
:1011F00005FC30EA0C00D1F804C0CCF3001C1CFA4A
:1012000005FC5CEA000004005C60DF685FF0030C32
:101210002800C0B240001CFA00FC37EA0C07D1F8E5
:1012200008C02800C0B240001CFA00FC5CEA0707B6
:10123000DF604868022802D0486812281ED12800C2
:10124000C00803EB8000046A5FF00F0C15F0070084
:10125000C0B280001CFA00FC34EA0C04D1F810C0C3
:1012600015F00700C0B280001CFA00FC5CEA040420
:1012700027002800C00803EB800007621C685FF0AD
:10128000030C2800C0B240001CFA00FC34EA0C0435
:1012900091F804C01CF0030C2800C0B240001CFAF6
:1012A00000FC5CEA04041C604868C00040F17F80D8
:1012B000DFF83C01006850F00200DFF8347138605C
:1012C000DFF82C01006810F0020000900098DFF8B1
:1012D00024012F00BF0850F827705FF00F0C15F0A5
:1012E0000300C0B280001CFA00FC37EA0C07424839
:1012F000834201D100242DE04048834201D10124E2
:1013000028E03F48834201D1022423E03D48834244
:1013100001D103241EE03C48834201D1042419E09A
:101320003A48834201D1052414E03948834201D16F
:1013300006240FE03748834201D107240AE03648EB
:10134000834201D1082405E03448834201D10924B5
:1013500000E00A2415F00300C0B280008440274357
:1013600024482C00A40840F82470306890434C684E
:10137000E40300D510433060746894434F68BF03A2
:1013800000D5144374605FF0B040006890434F682C
:10139000FF0200D510435FF0B0442060204C246869
:1013A00094434F68BF0200D514431D4804606D1C70
:1013B000EDE6F1BC70471300DBB2002B03D00B004D
:1013C0009BB2836103E00B009BB21B0483617047F7
:1013D00010B442690B009BB213400C00A4B29443BA
:1013E00054EA0344846110BC704700008000005838
:1013F000F44402580804005800000258000402583F
:1014000000080258000C025800100258001402583C
:1014100000180258001C02580020025800240258EC
:10142000040000580100000002000000030000005A
:101430000400000005000000060000000700000096
:1014400008000000090000000A0000000100000080
:10145000020000000300000004000000050000007E
:10146000060000000700000008000000090000005E
:101470000A0000000100000002000000030000005C
:101480000400000005000000060000000700000046
:1014900008000000090000000A0000000100000030
:1014A000020000000300000004000000050000002E
:1014B000060000000700000008000000090000000E
:1014C0000A0000000100000002000000030000000C
:1014D00004000000050000000600000007000000F6
:1014E00008000000090000000A00000001000000E0
:1014F00002000000030000000400000005000000DE
:1015000006000000070000000800000009000000BD
:101510000A000000010000000200000003000000BB
:1015200004000000050000000600000007000000A5
:1015300008000000090000000A000000010000008F
:10154000020000000300000004000000050000008D
:10155000060000000700000008000000090000006D
:101560000A0000000100000002000000030000006B
:101570000400000005000000060000000700000055
:1015800008000000090000000A000000010000003F
:10159000020000000300000004000000050000003D
:1015A000060000000700000008000000090000001D
:1015B0000A00000010B5FFF713FA00F012F800F06F
:1015C00067F840214548FFF703FF0024642C03DA45
:1015D00000F08EF8641CF9E740214048FFF7F8FE60
:1015E000EFE780B59CB04C22002109A800F0B6F8C6
:1015F0002022002101A800F0B1F8022000F0B8F884
:1016000000200090364800684008400034490860D7
:101610003348006810F0010000903248006830F450
:10162000404050F480402F4908602E48006810F474
:101630004040009000982B4800688004FBD50220B1
:10164000099001200C9040200D900020129009A8D4
:10165000FEF722FE002801D000F048F83F2001905C
:1016600000200290002003900020049000200590AC
:10167000002006900020079000200890012101A87A
:10168000FFF780FA002801D000F030F81DB000BD4F
:1016900080B586B01422002101A800F05FF812483E
:1016A000006850F00400104908600F48006810F00E
:1016B000040000900098002240210848FFF77BFEBC
:1016C000402001900120029000200390002004900F
:1016D00001A90248FFF756FD07B000BD00080258F7
:1016E0002C04005818480258E044025872B6FEE72D
:1016F00070B5ADF5487D64A817494FF4C87200F085
:1017000069F800210A2923DA00220A2A1EDA0023B6
:1017100000240A2C11DA64A8282505FB01F52844C9
:1017200050F8245064A8282606FB04F6304450F8EC
:10173000220000FB0533641CEBE76846282404FB09
:1017400001F4204440F82230521CDEE7491CD9E75E
:101750000DF5487D70BD00002414000810B5044646
:1017600010460A460146204600F08CF8204610BD7F
:1017700038B50400DFF85400006840070AD4DFF8E9
:101780004C00006810F00700A04201D001201CE0CE
:1017900000201AE0DFF834000068C008C0002043D1
:1017A000DFF828100860FFF715F90500DFF82000C2
:1017B0000068800408D4FFF70DF9401B40F2E931BE
:1017C0008842F3D3012000E0002032BD0C480258CB
:1017D00004480258103A07D330B4B1E83810103A30
:1017E000A0E83810F9D230BC530724BFB1E8081084
:1017F000A0E8081044BF51F8043B40F8043BD2076E
:1018000024BF31F8022B20F8022B44BF0B78037061
:101810007047121F17D35B0009D151F8043B20F821
:10182000023B1B0C121F20F8023BF6D20BE051F8D2
:10183000043B00F8013B1B0A20F8023B1B0C121F63
:1018400000F8013BF3D238BF121D521E24BF11F81D
:10185000013B00F8013BF8D870470EE0026843688E
:10186000024408305FEAC37C44BF4B445B1E52F81D
:1018700004CB43F804CB091FF9D150F8041B00290D
:10188000ECD1704762F30F2262F31F42401810F050
:10189000030308D0C91A1FD3DB0748BF00F8012D86
:1018A00028BF20F8022D130030B414461546103915
:1018B00028BF20E93C00FAD8490728BF20E90C00DE
:1018C00048BF40F8042D890028BF20F8022D48BFEA
:1018D00000F8012D30BC7047C91818BF00F8012D61
:1018E000CB0728BF00F8012D70470000364800687C
:1018F00050F47000344908603448006810F00F005C
:10190000072807D2314800680009000150F007009D
:101910002E4908602E48006850F001002C490860EC
:1019200000202C4908602A4801682B4801402848BB
:1019300001602648006810F00F00082807D32348EC
:1019400000680009000150F00700204908600020ED
:1019500022490860002022490860002021490860CF
:101960002148224908602248224908602248234928
:1019700008600020224908601F48224908600020B2
:10198000214908601C48214908600020204908605E
:101990000F48006830F480200D49086000201D4980
:1019A00008601D480068000C0004B0F1005F02D21E
:1019B00001201A49086043F2D200194908605FF01B
:1019C000006018490860704788ED00E00020005270
:1019D00000440258104402587FEDF6EA18440258B9
:1019E0001C440258204402580002020228440258B3
:1019F0000000FF012C4402588002010130440258CB
:101A000034440258384402583C4402584044025876
:101A100044440258604402580010005C08810051A0
:101A20000040005208ED00E010B507497944183134
:101A3000064C7C44163404E00A68081D11448847AB
:101A40000146A142F8D110BD2C0000003C0000006E
:101A50004EF68851CEF20001086840F4700008602C
:101A6000BFF34F8FBFF36F8F4FF00070E1EE100A9E
:101A700070470000E7FDFFFF14000000A000000019
:101A8000000000200000000000F00DF8002801D048
:101A9000FFF7CAFFAFF300800020AFF30080FFF72D
:101AA00089FD00F002F80120704700F001B8000045
:101AB0000746384600F002F8FBE7000080B5AFF3B8
:101AC0000080024A11001820ABBEFBE7260002008E
:101AD0000548014603B4684680F30988AFF30080E7
:101AE000FFF7B6FFFFF7D0FFA5EDF5FE034800684E
:101AF0000349097840180149086070470C0000202C
:101B000010000020FEE7FEE7FEE7FEE7FEE7704775
:101B10007047704780B5FFF7E9FF01BD1000000076
:101B20000090D0030090D0030000000001000000EE
:101B30000000000001020304010203040607080973
:101B40000148804701480047ED180008D11A0008F5
:101B5000FFF7FEBFFFF7FEBFFFF7FEBFFFF7FEBFB9
:101B6000FFF7FEBFFFF7FEBFFFF7FEBFFFF7FEBFA9
:101B7000FFF7FEBFFFF7FEBFFFF7FEBFFFF7FEBF99
:101B8000FFF7FEBFFFF7FEBFFFF7FEBFFFF7FEBF89
:0400000508001AD104
:00000001FF
