:020000040800F2
:100000000000022085160008F1060008F506000829
:10001000F9060008FD0600080107000800000000BE
:1000200000000000000000000000000005070008BC
:1000300009070008000000000D070008110700086C
:10004000D5160008D5160008D5160008D5160008E4
:10005000D5160008D5160008D5160008D5160008D4
:10006000D5160008D5160008D5160008D5160008C4
:10007000D5160008D5160008D5160008D5160008B4
:10008000D5160008D5160008D5160008D5160008A4
:10009000D5160008D5160008D5160008D516000894
:1000A000D5160008D5160008D5160008D516000884
:1000B000D5160008D5160008D5160008D516000874
:1000C000D5160008D5160008D5160008D516000864
:1000D000D5160008D5160008D5160008D516000854
:1000E000D5160008D516000800000000D516000837
:1000F000D5160008D5160008D5160008D516000834
:10010000D5160008D5160008D5160008D516000823
:10011000D5160008D5160008D5160008D516000813
:10012000D5160008D5160008D5160008D516000803
:10013000D5160008D5160008D5160008D5160008F3
:1001400000000000000000000000000000000000AF
:10015000D5160008D5160008D5160008D5160008D3
:10016000D5160008D5160008D5160008D5160008C3
:10017000D5160008D5160008D516000800000000A6
:10018000D5160008D5160008D5160008D5160008A3
:10019000D5160008D5160008D5160008D516000893
:1001A000D5160008D5160008D5160008D516000883
:1001B000D5160008D5160008D5160008D516000873
:1001C000D5160008D5160008D5160008D516000863
:1001D000D5160008D5160008D5160008D516000853
:1001E000D5160008D5160008D5160008D516000843
:1001F000D5160008D5160008D5160008D516000833
:10020000D5160008D5160008D5160008D516000822
:10021000D5160008D5160008D5160008D516000812
:10022000D5160008D5160008D516000800000000F5
:10023000D5160008D516000800000000D5160008E5
:10024000D5160008D5160008D5160008D5160008E2
:10025000D5160008D5160008D5160008D5160008D2
:10026000D5160008D5160008D5160008D5160008C2
:10027000D5160008D5160008D516000800000000A5
:10028000D5160008D5160008D51600080000000095
:0802900000000000D516000873
:1002C00010B5054C237833B9044B13B10448AFF390
:1002D00000800123237010BD54080020000000009E
:1002E0007430000808B5034B1BB103490348AFF352
:1002F000008008BD0000000058080020743000088D
:1003000090F800F06DE9024520F007016FF0000C55
:1003100010F0070491F820F040F049804FF00004FD
:100320006FF00700D1E9002391F840F000F10800D8
:1003300082FA4CF2A4FA8CF283FA4CF3A2FA8CF310
:100340004BBBD1E9022382FA4CF200F10800A4FA77
:100350008CF283FA4CF3A2FA8CF3E3B9D1E90423CB
:1003600082FA4CF200F10800A4FA8CF283FA4CF302
:10037000A2FA8CF37BB9D1E9062301F1200182FABC
:100380004CF200F10800A4FA8CF283FA4CF3A2FAC2
:100390008CF3002BC6D0002A04BF04301A4612BAD0
:1003A000B2FA82F2FDE8024500EBD2007047D1E9D3
:1003B000002304F00305C4F100004FEAC50514F062
:1003C000040F91F840F00CFA05F562EA05021CBF33
:1003D00063EA050362464FF00004A9E7000000004D
:1003E00001F0FF01102A2BDB10F0070F08D010F8E6
:1003F000013B013A8B422DD010F0070F42B3F6D1EA
:10040000F0B441EA012141EA014122F007047FF002
:1004100000070023F0E80256083C85EA010586EA59
:10042000010685FA47F5A3FA87F586FA47F6A5FA95
:1004300087F68EB9EED1F0BC01F0FF0102F00702A1
:1004400032B110F8013B013A83EA010313B1F8D14C
:100450000020704701387047002D06BF354603382D
:10046000073815F0010F07D1013015F4807F02BF66
:10047000013015F4C03F0130F0BC0138704700BFB7
:10048000844641EA000313F003036DD1403A41D39F
:1004900051F8043B40F8043B51F8043B40F8043B5E
:1004A00051F8043B40F8043B51F8043B40F8043B4E
:1004B00051F8043B40F8043B51F8043B40F8043B3E
:1004C00051F8043B40F8043B51F8043B40F8043B2E
:1004D00051F8043B40F8043B51F8043B40F8043B1E
:1004E00051F8043B40F8043B51F8043B40F8043B0E
:1004F00051F8043B40F8043B51F8043B40F8043BFE
:1005000051F8043B40F8043B51F8043B40F8043BED
:10051000403ABDD2303211D351F8043B40F8043B8D
:1005200051F8043B40F8043B51F8043B40F8043BCD
:1005300051F8043B40F8043B103AEDD20C3205D39D
:1005400051F8043B40F8043B043AF9D2043208D095
:10055000D2071CBF11F8013B00F8013B01D30B8807
:1005600003806046704700BF082A13D38B078DD0E5
:1005700010F003038AD0C3F10403D21ADB071CBFB7
:1005800011F8013B00F8013B80D331F8023B20F821
:10059000023B7BE7043AD9D3013A11F8013B00F85A
:1005A000013BF9D20B7803704B7843708B788370E2
:1005B0006046704710B59EB04C2200210BA801F098
:1005C000B5F82022002102A801F0B0F8022000F0C6
:1005D00087FB1E4B00211E4A0191D96A21F00101BF
:1005E000D962DB6A03F001030193936923F440436A
:1005F00043F480439361936903F440430193019B67
:1006000093699B04FCD54023012402220BA8CDE969
:100610000E4300230B92149300F086FB08B172B6D0
:10062000FEE73F220023214602A8CDE90223002253
:100630000023CDE90423CDE90623CDE9082300F00A
:10064000F9FE08B172B6FEE71EB010BD00040058F6
:100650000048025830B589B000F040F9FFF7AAFF12
:100660000022184B40210692CDE90222CDE9042256
:10067000D3F8E00040F00400C3F8E000D3F8E03025
:10068000114803F0040305460193019B00F01AFB97
:100690004022012302A92846CDE90223002200239B
:1006A000CDE9042300F0C8F940212846642400F075
:1006B0000DFB00F0E7F8013CFBD14021284600F09B
:1006C00005FBF1E70044025800080258074B82B0CE
:1006D000D3F8F42042F00202C3F8F420D3F8F43047
:1006E00003F002030193019B02B0704700440258DB
:1006F000FEE700BFFEE700BFFEE700BFFEE700BF6A
:10070000FEE700BF704700BF704700BF704700BFE3
:1007100000F014B970B5161E07DD0C468D19AFF345
:10072000008004F8010BA542F9D1304670BD00BF2E
:1007300070B5161E07DD0C468D1914F8010BAFF3CA
:100740000080AC42F9D1304670BD00BF4FF0FF30A1
:10075000704700BF4FF4005300204B60704700BF4C
:10076000012070470020704738B50D4C03460D49F5
:100770000D4D2268491B2AB113448B4208D81046FC
:10078000236038BD09480246206013448B42F6D9E5
:1007900000F0A2FF0C234FF0FF320360104638BD7B
:1007A000700800200000022000040000C0080020A3
:1007B00029492A4AD1F8883043F4700310B4C1F8AB
:1007C0008830136803F00F03062B05D8136823F055
:1007D0000F0343F007031360214B0024214A1968DB
:1007E0001E4841F0010119601C6119680A401A6035
:1007F00003681B0705D5036823F00F0343F00703C5
:100800000360174B00221849184C19489A61DA61A5
:100810001A629C62D86219635A639963DA63196435
:100820005A641868134C20F48020134918601A6623
:1008300023681940B1F1005F03D2104B0122C3F8C5
:1008400008210F4943F2D200034B4FF000620860C9
:100850005DF8044B9A60704700ED00E00020005204
:10086000004402587FEDF6EA800201010002020214
:100870000000FF010010005C0000FFFF008000513D
:1008800000400052014800F0F1BF00BF9C3000085A
:100890000F4B1B780BB90120704710B504464FF47D
:1008A0007A700C4AB0FBF3F31068B0FBF3F000F081
:1008B000ADF80F2C00D808B1012010BD0022214650
:1008C0004FF0FF3000F064F8034B00201C6010BDB7
:1008D00008000020000000200C00002010B50320BC
:1008E000124C00F043F800F005FD114B11499A69D4
:1008F0009B69C2F3032203F00F038A5CCB5C02F016
:100900001F020D4903F01F03D04020FA03F30860D3
:100910000F202360FFF7BCFF10B10124204610BD5B
:100920000446FFF7D3FE204610BD00BF04000020A0
:10093000004402588C30000800000020034A044B99
:1009400011681B780B441360704700BF74080020C7
:1009500008000020014B1868704700BF7408002091
:10096000014B1868000C70470010005C06494FF6F8
:10097000FF0C0002054BCA6800F4E06002EA0C02BA
:1009800010430343CB60704700ED00E00000FA0520
:100990001B4BDB68C3F3022300B5C3F1070E03F161
:1009A000040CBEF1040F28BF4FF0040EBCF1060F7B
:1009B0001AD9033B4FF0FF3C0CFA03FC22EA0C026D
:1009C0004FF0FF3C00280CFA0EFC21EA0C0101FA62
:1009D00003F141EA02010ADB09010A4BC9B20344EF
:1009E00083F800135DF804FB00221346E8E700F0EB
:1009F0000F000901044BC9B2034419765DF804FBEA
:100A000000ED00E000E100E0FCEC00E0431EB3F18B
:100A1000807F0CD24FF0E022002006494FF0F00C0E
:100A20005361072381F823C090611361704701204F
:100A3000704700BF00ED00E02DE9F04F0D6883B076
:100A4000002D00F0EB804FF0000CDFF86882634669
:100A500025E003F007024FEAD30E4FF00F0A04F02F
:100A600003044FEA820900EB8E0E04FA0CF40AFA32
:100A700009FADEF8202022EA0A0A0A6902FA09F2D3
:100A800042EA0A02CEF82020026816402643066099
:100A900001330CF1020C35FA03F200F0BF800122A1
:100AA0009A4012EA050EF3D04C6824F0100909F1BF
:100AB000FF36012E4FF0030606FA0CF600F2B18065
:100AC000D0F808A0CF682AEA060AF64307FA0CFB1A
:100AD0004BEA0A0AC0F808A0C4F3001AD0F804B020
:100AE0000AFA03FA2BEA02024AEA02024260C268E8
:100AF000B9F1020F02EA060A8A6802FA0CF242EA27
:100B00000A02C260A5D00268E70002EA060204F009
:100B1000030606FA0CF646EA02060660B8D55E4EF3
:100B200003F003095D4FD6F8F4204FEA8909B84273
:100B300042F00202C6F8F420D6F8F42023F00306AF
:100B400002F0020246440192019A4FF00F02D6F8D9
:100B500008A002FA09F22AEA020226D007F5806705
:100B6000B84267D04E4FB8426BD04E4FB8425AD0C1
:100B70004D4FB84273D04D4FB84277D04C4FB8422A
:100B800066D0DFF834A1504577D0DFF830A150456A
:100B90007AD0DFF82CA150450CBF4FF0090A4FF076
:100BA0000A0A0AFA09F942EA0902B2604FF0B042B1
:100BB000E6036FEA0E09D2F880204FF0B04603F149
:100BC00001030CF1020C54BF09EA02024EEA0202D0
:100BD000C6F88020A203D6F884604FF0B04254BF1C
:100BE00009EA06064EEA0606E702C2F884601668BD
:100BF0004FF0B04254BF09EA06064EEA0606A402C8
:100C00004FF0B0441660526854BF09EA02024EEA3F
:100C10000202626035FA03F27FF441AF03B0BDE82F
:100C2000F08FF64363E74FF0030A0AFA09F942EA44
:100C30000902BAE74FF0010A0AFA09F942EA090281
:100C4000B3E74FF0020A0AFA09F942EA0902ACE7EF
:100C50004FF0060A0AFA09F942EA0902A5E74FF03D
:100C6000040A0AFA09F942EA09029EE74FF0050A66
:100C70000AFA09F942EA090297E74FF0070A0AFA65
:100C800009F942EA090290E74FF0080A0AFA09F95D
:100C900042EA090289E700BF0044025800000258F6
:100CA00000080258000C02580010025800140258A4
:100CB0000018025800040058001C02580020025876
:100CC0000024025802B9090481617047436901EAAE
:100CD000030221EA030141EA02418161704700BF3A
:100CE00038B5104CE36813F0040FE36805D103F046
:100CF0000703181A18BF012038BD23F00703184353
:100D0000E060FFF727FE054605E0FFF723FE401BE6
:100D1000B0F57A7F04D863689B04F6D5002038BD0F
:100D2000012038BD00480258002800F0E781F8B5DE
:100D300003680446D9072ED59F490A69896A02F0DB
:100D40003802102A00F02581182A00F01D816368FE
:100D5000B3F5803F00F05F81002B00F07781B3F5A1
:100D6000A02F954B1A6800F0688222F480321A6036
:100D70001A6822F480221A60FFF7ECFD8E4E0546B9
:100D800005E0FFF7E7FD401B642800F25D81336852
:100D90009F03F6D52368990721D5874A1369926A7C
:100DA00013F0380340F0A480834B1B685B0703D526
:100DB000E368002B00F0E680FFF7D2FD41F2030369
:100DC000984200F27C812269402A00F03E827A49F2
:100DD0004B6823F47C3343EA02334B602368D90623
:100DE00053D41D0716D56369734D002B00F0AE80F8
:100DF0006B6F43F001036B67FFF7ACFD064605E040
:100E0000FFF7A8FD801B022800F21E816B6F980778
:100E1000F6D523689A0616D5A369674D002B00F016
:100E20002B812B6843F480532B60FFF793FD06461C
:100E300005E0FFF78FFD801B022800F205812B687B
:100E40009F04F6D52368590700F1AD80606AD0B1E0
:100E5000594D2B6903F03803182B00F0C0812B6823
:100E6000022823F080732B6000F05481FFF772FD9D
:100E7000044605E0FFF76EFD001B022800F2E48047
:100E80002B689B01F6D40020F8BD4B4A1369926A87
:100E900003F03803082B6ED0182B68D0E369464D59
:100EA000002B00F0FA802B6843F080032B60FFF7E3
:100EB00051FD064605E0FFF74DFD801B022800F2BC
:100EC000C3802B68DB05F6D5FFF74AFD41F203032B
:100ED000984200F2E381226A6B68202A23F0F843EB
:100EE0000CBF43F0804343EA82636B60236878E77A
:100EF000182B00F0FF80304DE2682B68002A00F0CC
:100F0000E88023F0190313432B60FFF723FD064607
:100F100005E0FFF71FFD801B022800F295802B687B
:100F20005F07F6D5FFF71CFD41F20303984200F27C
:100F3000BE8122696B68402A23F47C330CBF43F4E2
:100F4000003343EA02336B60236848E76B6F23F09A
:100F500001036B67FFF7FEFC064604E0FFF7FAFCAF
:100F6000801B022870D86B6F9907F7D451E702F005
:100F70000302012A92D1104B1B68DA0551D5E369AF
:100F8000802B4ED00120F8BD01F0030102297FF42F
:100F9000DEAE094A126892037FF5FDAE6268002A50
:100FA0007FF4F9AEEEE7054D2B6843F480732B60B8
:100FB000FFF7D0FC064608E00044025800480258FB
:100FC000FFF7C8FC801B64283ED82B68DA05F7D5EC
:100FD000A368012B00F07481002B00F03F81052BEA
:100FE000A64B1A6F00F07B8122F001021A671A6F7C
:100FF00022F004021A67FFF7ADFCA04E41F28837D9
:10100000054604E0FFF7A6FC401BB8421CD8336F2E
:101010009B07F7D51AE7994A136843F480331360A6
:10102000AAE6FFF79DFC41F20303984268D8226AC2
:10103000202A00F04B8191494B6823F0F84343EAA2
:1010400082634B602368CCE60320F8BD8B4D2B6890
:1010500023F480332B602B6823F480232B60FFF76D
:1010600079FC064604E0FFF775FC801B6428EBD88A
:101070002B689803F7D48DE62B6823F480532B60FC
:10108000FFF768FC064604E0FFF764FC801B0228BB
:10109000DAD82B689804F7D4D4E62B6823F08003C1
:1010A0002B60FFF757FC064604E0FFF753FC801B5C
:1010B0000228C9D82B68DF05F7D4236891E66F4A68
:1010C0002169536823F0FE4343EA016353602368B8
:1010D00085E623F001032B60FFF73CFC064604E0A5
:1010E000FFF738FC801B0228AED82B685807F7D4CE
:1010F000236874E692077FF4FEAE55E60120704740
:101100005E4A216AD36823F07C5343EA0163D360CB
:10111000236866E6FFF71EFC064604E0FFF71AFCAC
:10112000801B022890D82B689901F7D4A96A544BE8
:10113000A26A0B405349514E1343E26A43EA021339
:10114000AB62D4E90D32013B013A5B0212049BB25F
:1011500002F4FE021343226B013AC2F30802134366
:10116000E26B013A120602F0FE4213432B63EB6A74
:1011700023F00103EB626A6BA36C114041EAC301E7
:101180006963EB6A226C23F00C031343EB62EB6A96
:10119000626C23F002031343EB62EB6A43F4803387
:1011A000EB62EB6A43F40033EB62EB6A43F48023B7
:1011B000EB62EB6A43F00103EB622B6843F0807350
:1011C0002B60FFF7C7FB044605E0FFF7C3FB001BDE
:1011D00002283FF639AF33689A01F6D553E6012865
:1011E000AA6A2D6B3FF450AE02F00303A16A8B4252
:1011F0007FF4C8AEC2F30512E36A9A427FF4C2AE2E
:10120000236BC5F30802013B9A427FF4BBAE636BCC
:10121000C5F34622013B9A427FF4B4AEA36BC5F3FB
:101220000642013B9A427FF4ADAEE06BC5F3066522
:101230000138281A18BF0120F8BD42F480221A6034
:101240001A6842F480321A6096E50C4A536823F417
:101250007C3343F4003353602368C0E5074D41F20B
:1012600088372B6F23F001032B672B6F23F00403C8
:101270002B67FFF76FFB06460CE000BF00440258E7
:101280000CFCFFFF0700FFFFFFF764FB801BB84269
:101290003FF6DAAE2B6F9807F6D4D7E5EB68226AF3
:1012A00023F07C5343EA0263EB60236899E56B68A3
:1012B000226923F0FE4343EA02636B6023688EE5F4
:1012C0000B4A136F43F00103136794E6084A53680F
:1012D00023F0F84343F080435360236881E542F0F4
:1012E00004021A671A6F42F001021A6783E600BF10
:1012F00000440258474A136903F03803102B04D006
:10130000182B0DD01BB144487047444870471368F0
:1013100099064AD513684248C3F3C103D8407047C1
:10132000936A30B4946AD56A14F47C7F516BC4F329
:10133000051038D0C1F3CC0105F0010503F003031B
:1013400005FB01F1012B07EE901AB8EEE77A02D007
:10135000022B2CD093B307EE900ADFED326AF8EE41
:10136000E77A136B86EEA76ADFED2F5AC3F3080303
:1013700006EE903AB7EE005AF8EEE66A76EE856A27
:10138000E7EE256A66EE266A224B1B6BC3F3462303
:10139000013307EE903AB8EEE77AC6EE877AFCEEB4
:1013A000E77A17EE900A30BC70471D48704707EE89
:1013B000900ADFED1E6AF8EEE77AD2E713689B0623
:1013C00020D5146807EE900A1549B7EE006A136B32
:1013D000C4F3C104F8EEE77A9FED135AC3F3080390
:1013E000E14006EE903A05EE901AF8EEE66AF8EE65
:1013F000E55A76EE866A85EEA76AE7EE056A66EE3E
:10140000266AC1E707EE900ADFED096AF8EEE77A8F
:10141000A7E700BF0044025800093D0040787D0165
:101420000090D0030024744A0000003920BCBE4B59
:101430000024744C002800F00C818C4A136803F0DF
:101440000F038B422DE9F04104460D460CD2136880
:1014500023F00F030B431360136803F00F038B4259
:1014600002D00120BDE8F08123685F070BD58049D9
:1014700020698A6902F07002904204D98A6922F0D8
:10148000700202438A611E070BD579496069CA69F7
:1014900002F07002904204D9CA6922F0700202433D
:1014A000CA61D8060BD57249A069CA6902F4E06224
:1014B000904204D9CA6922F4E0620243CA619906E3
:1014C0000BD56B49E0690A6A02F07002904204D9B8
:1014D0000A6A22F0700202430A629A0740F1AB8066
:1014E0006348E168826902F00F02914204D982697F
:1014F00022F00F020A438261D80730D55C4AA16806
:10150000936923F470630B43936161681368022944
:1015100000F0A180032900F09880012900F0A1804B
:1015200058079ED5524E41F28838336923F007039D
:101530000B433361FFF70EFA074605E0FFF70AFA9F
:10154000C01B404500F28B803369626803F03803AA
:10155000B3EBC20FF2D12368990706D5E16844487E
:10156000826902F00F028A4269D840490A6802F093
:101570000F02AA420AD90A6822F00F022A430A601F
:101580000A6802F00F02AA427FF46BAF5A070BD52C
:10159000374920698A6902F07002904204D28A6950
:1015A00022F0700202438A611F070BD5304960693F
:1015B000CA6902F07002904204D2CA6922F0700235
:1015C0000243CA61DE060BD52949A069CA6902F443
:1015D000E062904204D2CA6922F4E0620243CA6126
:1015E0009D060BD5224AE169136A03F07003994204
:1015F00004D2136A23F070030B431362FFF77AFEE1
:101600001B4A03461B4891699269C1F303211A4D95
:1016100002F00F02194C415C825C01F01F01184876
:1016200002F01F02CB4000682B60D3402360BDE86E
:10163000F041FFF72DB9DA073FF560AF95E7826912
:1016400022F00F02114381618FE79F013FF56AAFDE
:1016500007E7012070479B033FF564AF01E70320D4
:1016600000E7DE053FF55EAFFBE600BF002000525D
:10167000004402588C3000080000002004000020C4
:101680000C000020DFF834D0FFF792F80C480D4929
:101690000D4A002302E0D458C4500433C4188C42CD
:1016A000F9D30A4A0A4C002301E013600432A24233
:1016B000FBD300F017F8FEF7CDFF704700000220C3
:1016C0000000002054080020C43000085408002006
:1016D000C0080020FEE70000014B1868704700BFFB
:1016E0001000002070B50D4E0D4D761BB61006D0C3
:1016F000002455F8043B01349847A642F9D1094E1D
:10170000094D761B01F0B6FCB61006D0002455F842
:10171000043B01349847A642F9D170BDB8300008A7
:10172000B8300008C0300008B8300008830730B572
:1017300048D0541E002A3FD0CAB2034601E0013C03
:101740003AD303F8012B9D07F9D1032C2DD9CDB243
:1017500045EA05250F2C45EA054536D9A4F11002C6
:1017600022F00F0C03F1200EE6444FEA121C03F1A5
:10177000100242E9045542E9025510327245F8D18F
:101780000CF1010214F00C0F03EB021204F00F0C29
:1017900013D0ACF1040323F003030433134442F8E1
:1017A000045B9342FBD10CF003042CB1CAB21C447D
:1017B00003F8012B9C42FBD130BD64461346002C3C
:1017C000F4D1F9E703461446BFE71A46A446E0E71A
:1017D00070B5054688B008460C46FEF791FD224ECE
:1017E000AA6B059001214318CDE9066104A80221E6
:1017F00004940393AC680190029122B3636E13F0DA
:10180000010FB4F90C309AB201D1980525D5910495
:1018100006D4626E43F4005322F40052A381626640
:10182000284601AA214600F0E7F8636E002814BF9D
:101830004FF0FF350A25DA0702D4A3899B0506D5A8
:10184000284608B070BD284600F02EF8D6E7A06DF7
:1018500000F074FA284608B070BDA06D00F06CFA74
:10186000B4F90C309AB2D2E7B4300008024B01460A
:101870001868FFF7ADBF00BF10000020024B13B186
:10188000024800F005B8704700000000CD190008BC
:10189000002301461A46184601F04EB8014900F0EF
:1018A00023BA00BFE92900082DE9F04782463948EC
:1018B00000F042FADAF83840002C66D1DAF8045029
:1018C000354ACAF83C200323CAE9B843DFF8DC9064
:1018D000DFF8DC80314F324E04230AF53B72CAF840
:1018E000E8222146C5E90243C5E90044C5E90444AC
:1018F0006C660822AC6105F15C00FFF717FFC5E9D3
:101900000759C5E90987EE6205F1580000F010FAA1
:10191000DAF80850234BEB602146C5E90044C5E9DD
:1019200004446C66AC60AC61082205F15C00FFF712
:10193000FDFEC5E90759C5E90987EE6205F15800C2
:1019400000F0F6F9DAF80C50174BEB602146C5E9C8
:101950000044C5E904446C66AC60AC61082205F142
:101960005C00FFF7E3FE05F15800C5E90759C5E93A
:101970000A76C5F8248000F0DBF90123CAF8383074
:101980000448BDE8F04700F0D9B9BDE8F047014888
:1019900000F0D4B9840800209D1800081128000820
:1019A000312800080900010012000200AD270008DC
:1019B000D1270008014800F0BFB900BF800800200F
:1019C000014800F0BBB900BF8008002038B5084BC3
:1019D000084D5B1B9C1007D0043B1D44013C55F88F
:1019E00004399847002CF9D1BDE8384001F048BBD4
:1019F000C4300008C03000089368002B00F08580D8
:101A00002DE9F04FB1F90C300C461907804683B030
:101A1000174698B225D523691BB310F002033D6821
:101A20002DD04FF0000ADFF8BCB25646B9465E45ED
:101A30003346524628BF5B464046002E52D0E169ED
:101A4000676AB847002856DDD9F808301B1A824467
:101A5000361AC9F80830002BE9D1002003B0BDE8E0
:101A6000F08F2146404600F0FDFE002840F0368110
:101A7000B4F90C303D6898B210F00203D1D110F0E7
:101A8000010944D14E46009746B38205D4F808B008
:101A900040F18380B3455A4600F2B28010F4906F53
:101AA00040F0BF8020680192494600F0F9FBA3682E
:101AB000019AA3EB0B012368A1601344B246236093
:101AC0000026009B9868A0EB0A00D144986000288B
:101AD000C3D0B4F90C0080B2002ED6D1D5E900965F
:101AE0000835D1E7D5E900A60835A0E721464046EC
:101AF00001F078F880B3B4F90C3043F040034FF0B4
:101B0000FF30A38103B0BDE8F08F002070471E4670
:101B1000AA46994618461D46009756B388B34A46CA
:101B2000D4E904132068B24228BF3246884205D95E
:101B3000A16803EB010B5A4500F3A680934263DCD6
:101B4000E169676A2A464046B847B0F1000BD2DD2A
:101B5000B9EB0B09CAD00120009A9368A3EB0B03E1
:101B60005D44A6EB0B069360002B3FF476AF002E8E
:101B7000D4D10AF1080353E902569A460833002EDD
:101B8000F9D032460A212846FEF72AFC002800F048
:101B90009C800130A0EB0509C1E7206823699842C9
:101BA00016D86369B34213D86FF00042B24228BF1F
:101BB0003246E16992FBF3F2676A02FB03F34046A7
:101BC0004A46B847B0F1000A95DDA6EB0A0678E769
:101BD000B345DA4628BFB2465246494600F060FB9C
:101BE000A3682268A3EB0A035244A3602260002B7F
:101BF000EBD12146404600F0F5FF0028E5D07AE71A
:101C00002068B34632464EE72946019200F048FB71
:101C1000019AA3689B1AA360236813442360934628
:101C200096E723682169A3EB010B636903EB430A81
:101C30000AEBDA7A0BF101034FEA6A0A334453459F
:101C4000524684BF9A46524643052CD5114640461B
:101C500000F076F800283BD05A4621690190FEF743
:101C60000FFCA289019B22F4906242F08002A281C3
:101C700003EB0B002361AAEB0B03C4F814A0A360D1
:101C80002060B34632460EE729465A4600F008FB6C
:101C900023685B4423602146404600F0A3FF0028F0
:101CA0003FF456AF27E7404600F082FB034600288A
:101CB000DED12169404601F013F8B4F90C300C2252
:101CC00023F08003C8F8002017E7721C914627E72D
:101CD0000C22B4F90C30C8F800200EE74FF0FF30AA
:101CE000BCE600BF00FCFF7F2DE9F84307468846AD
:101CF00000F538764FF00009D6E90154013D11D4C2
:101D0000A389012B05F1FF3508D9B4F90E30013351
:101D1000214603D03846C04749EA00096B1C04F14C
:101D20006804EDD13668002EE6D14846BDE8F88358
:101D3000704700BF704700BF704700BF704700BFCB
:101D40002DE9F04F01F10B06162E83B0044624D87E
:101D5000102900F2BA8000F01FFB10261822022082
:101D6000B54F3A44A2F1080153688B4200F0BA80A3
:101D70005A68D96822F003021A449D68E9608D60B0
:101D8000516841F001012046516003F1080500F05F
:101D900009FB284603B0BDE8F08F36F0070600F1D6
:101DA0009480B14200F2918000F0F6FAB6F5FC7F23
:101DB000C0F09A81730A00F08F80042B00F26F81CB
:101DC000B30903F1390003F1380CC3009A4F3B44C7
:101DD000A3F108055B689D4206D10CE0002980F262
:101DE0002781DB689D4206D05A6822F00302911BCE
:101DF0000F29F3DD60463D69DFF850C265457CD0B0
:101E00006A6822F00302931B0F2B00F37B81002BE7
:101E1000C7E904CC80F26C81B2F5007F80F01A81B2
:101E2000D308796801334FEA521E012202FA0EF2FA
:101E30000A4357F833E0C5F808E007EBC301083957
:101E4000E9607A6047F83350CEF80C5083100121D6
:101E50009940914257D8114206D120F00300490021
:101E6000114200F10400FAD007EBC0094D46864646
:101E7000D5F80C80454508D11DE1002B80F2248166
:101E8000D8F80C80454500F01681D8F8042022F0DF
:101E90000302931B0F2BF0DD2046D8E9025408EB18
:101EA000060146F00106C8F80460EC60A56043F046
:101EB0000104C7E90411C1E902CC4C6048F80230C2
:101EC00000F070FA08F1080502E00C2323600025F9
:101ED000284603B0BDE8F08F4FF4007340204FF068
:101EE0003F0C73E7D3689A4208BF02307FF440AFDB
:101EF0003D69DFF858C1654582D17A6883100121B8
:101F000099409142A7D9BD686B6823F003094E45FB
:101F100003D8A9EB06030F2B7ADCDFF834B1474B6B
:101F2000DBF800201B680132334405EB090A00F09E
:101F3000338103F580530F3323F47F6828F00F08B3
:101F40004146204600F020FC411C024600F0F38090
:101F5000824500F2EE803A4B196841441960084608
:101F600000F04E81DBF80010019301311BBFA2EBA2
:101F70000A0A5044CBF80020186012F0070B00F05A
:101F80001781CBF108010A44CBF580519044083108
:101F9000A1EB0801C1F30B0A51462046009200F064
:101FA000F3FB421CDDE9002300F04F81801A00EBB7
:101FB0000A081968BA6048F001005144BD425060F7
:101FC000196000F02981B9F10F0F40F2278168688C
:101FD000A9F10C0C2CF0070C00F0010040EA0C00F9
:101FE00068604FF0050E05EB0C00BCF10F0FC0E967
:101FF00001EE00F2328150681546124B1A688A428F
:1020000038BF1960104B1A688A4238BF196094E0D3
:10201000AA1943F0010346F001066E602046BA603B
:10202000536000F0BFF90835284603B0BDE8F08FD3
:10203000D9681A44A1E600BF44040020B808002073
:1020400088080020B0080020B40800204C040020BC
:102050004C080020B2F5206F4FEA522363D3142BB3
:1020600000F2B78003F15C01C9005B3307EB010E9E
:102070007958AEF1080E8E4500F091804B6823F040
:102080000303934202D989688E45F7D1D1F80CE059
:102090007A68C5E9021ECEF80850CD60D6E6142B4A
:1020A00059D9542B00F29D80330B03F16F0003F1DB
:1020B0006E0CC3008AE60EF1010E1EF0030F05F14F
:1020C00008057FF4D5AE51E0424445465368D8F840
:1020D0000C1043F00103536055F8083F2046D960C7
:1020E0008B6000F05FF9F3E6F00806F1080237E6CE
:1020F0002A442046536843F001035360083500F03A
:1021000051F9E5E6A919204646F0010643F001041D
:102110006E60C7E90411C1E902CC4C60AB5000F01D
:1021200041F90835D4E6930903F13901C900383380
:102130009CE7BD425FD0BD68686820F00308464553
:10214000A8EB060302D80F2B3FF762AF204600F042
:1021500029F90025BCE603F15C0003F15B0CC30028
:1021600034E659F808394B4540F0968010F0030FDB
:1021700000F1FF30F5D17B6823EA01037B60490061
:1021800099423FF6C0AE19B9BDE649000EF1040E02
:102190001942FAD0704667E603F11008D0E69A10AB
:1021A0004FF001087B6808FA02F21A437A6070E780
:1021B00002EB08014942C1F30B0A51462046009246
:1021C00000F0E2FA431CDDE900237FF4EFAEDA46CB
:1021D000EFE6542B25D8130B03F16F01C9006E33C2
:1021E00044E7B3F5AA7F25D8F30B03F1780003F198
:1021F000770CC300EAE5294B186840441860B1E643
:10220000CAF30B0CBCF1000F7FF4ACAEBD68C84440
:1022100048F001006860F0E61546EEE601235360E1
:1022200094E7B3F5AA7F23D8D30B03F17801C90053
:1022300077331BE740F25452934223D8B30C03F197
:102240007D0003F17C0CC300C0E5ABF1080BD84462
:10225000A8EB02084FF0000AABE605F108012046A2
:10226000009300F03DFDBD68009B68681968C4E6F6
:1022700040F254518B420BD8930C03F17D01C900FD
:102280007C33F3E64FF47E737F204FF07E0C9DE5A8
:102290004FF47E717E23E9E67B6870E788080020B2
:1022A00088420DD98B1883420AD900EB020CBAB1CF
:1022B000624613F801CD02F801CD9942F9D1704779
:1022C0000F2A0ED8034602F1FF3C4AB10CF1010C73
:1022D000013B8C4411F8012B03F8012F6145F9D122
:1022E000704740EA01039B0750D1A2F1100370B57B
:1022F00001F1200C23F00F0501F1100E00F1100484
:10230000AC441B095EF8105C44F8105C5EF80C5C91
:1023100044F80C5C5EF8085C44F8085C5EF8045C09
:1023200044F8045C0EF1100EE64504F11004E9D106
:10233000013312F00C0F01EB031102F00F0400EB5C
:10234000031327D0043C24F003064FEA940C1E44E8
:102350001C1F8E465EF8045B44F8045FB442F9D15A
:102360000CF1010402F0030203EB840301EB84018E
:1023700002F1FF3C4AB10CF1010C013B8C4411F815
:10238000012B03F8012F6145F9D170BD02F1FF3C2B
:1023900003469BE72246EBE70148FFF7CDBC00BFB1
:1023A0007C0800200148FFF7C9BC00BF7C08002062
:1023B0002DE9F84F1746002900F0988007F10B052A
:1023C00080460C46FFF7E8FF162D5DD810252A46FB
:1023D000AF425ED854F8041C21F003069642A4F1E3
:1023E000080962DABC4BD3F808C009EB0600844543
:1023F00000F09780D0F804C02CF0010303445B6820
:10240000DB0768D42CF0030C06EB0C03934247DA8D
:10241000CB0710D454F8083CA9EB030ADAF80430CF
:1024200023F003018C44B444944580F21181731865
:10243000934280F2E88039464046FFF781FC074628
:10244000E0B154F8043C23F001034B44A0F108022E
:10245000934200F0D280321F242A00F2F580132A22
:1024600000F2AC8003462246116819605168596039
:1024700092689A602146404600F032FC4046FFF7E1
:1024800091FF3846BDE8F88F25F00705002D2A4654
:102490009EDA0C23C8F8003000273846BDE8F88FD4
:1024A0001E46D0E90223D3609A60731B0F2B22D8FB
:1024B000D9F8043003F0010333434E44C9F8043023
:1024C000736843F00103736040462746FFF76AFFD5
:1024D0003846BDE8F88FC907ADD454F8083CA9EBDD
:1024E000030ADAF8041021F00301A0E7BDE8F84F71
:1024F0001146FFF725BCD9F8041001F0010129436A
:10250000C9F8041009EB05014E4443F001034B6088
:10251000736843F0010308317360404600F0E0FB4C
:10252000D2E7DCF8040020F0030B06EB0B0C05F1FE
:10253000100084454DDAC9073FF57DAF54F8081CFB
:10254000A9EB010ADAF8041021F003018B44B3442B
:1025500058453FF76CAF5746DAF80C1057F8080F9C
:10256000321F242AC160886000F2DB80132A40F207
:10257000D6802168CAF808106168CAF80C101B2AB6
:1025800000F2DF8008340AF11002216811606168EE
:102590005160A16891600AEB0501ABEB050242F0C6
:1025A000010299604A60DAF8043003F001031D4328
:1025B0004046CAF80450FFF7F5FE6EE72368036053
:1025C000636843601B2A68D804F1080200F108031D
:1025D0004AE709EB05029A60ACEB050343F00103FF
:1025E000536054F8043C03F001031D43404644F893
:1025F000045CFFF7D7FE27464FE750F8043C23F072
:1026000003031E4451E75746DAF80C1057F8080F39
:10261000321F242AC16088604CD8132A48D9216807
:10262000CAF808106168CAF80C101B2A56D808347A
:102630000AF110021E462368136063685360A368A2
:102640009360D1463C4630E72146FFF729FE11E76B
:10265000D0E902135746CB60996057F8081FDAF8A3
:102660000C30CB60321F242A99602DD8132A29D927
:102670002368CAF808306368CAF80C301B2A42D8AD
:1026800008340AF1100322681A6062685A60A2686E
:102690009A606646D1463C4607E7A3688360E368D4
:1026A000C360242A26D004F1100200F11003DBE6F7
:1026B0003A46BFE7214638461E46D146FFF7F0FDB1
:1026C0003C46F2E63B46DEE7214638466646D146C2
:1026D000FFF7E6FD3C46E8E644040020A168CAF89E
:1026E0001010E168CAF81410242A20D010340AF11E
:1026F00018029FE7236903616169416104F11802CF
:1027000000F11803B0E6A368CAF81030E368CAF80D
:102710001430242A21D010340AF11803B3E73A46C2
:1027200033E721463846FFF7BBFD164B33E72269F6
:10273000CAF818206269CAF81C2018340AF120026D
:1027400078E7A168CAF81010E168CAF81410242AC2
:102750000DD010340AF1180217E72369CAF81830AF
:102760006369CAF81C3018340AF120038BE7226928
:10277000CAF818206269CAF81C2018340AF120022D
:1027800003E700BF4404002038B5074D002204468B
:1027900008462A60FDF7E8FF431C00D038BD2B68CF
:1027A000002BFBD0236038BDBC08002010B50C46C0
:1027B000B1F90E1000F020FC002803DB236D034468
:1027C000236510BDA38923F48053A38110BD00BFEE
:1027D0002DE9F0410C46B1F90C101F46CB0505461A
:1027E00016460BD421F48051A1813B46B4F90E105A
:1027F00032462846BDE8F04100F01EB8B4F90E108C
:102800000223002200F072FBB4F90C10EAE700BFCB
:1028100010B50C46B1F90E1000F068FBA389421CFC
:102820000EBF23F4805343F480532065A38110BD71
:10283000B1F90E1000F0C6B838B50C46084D844604
:10284000114620461A4600232B606446FDF770FFB0
:10285000431C00D038BD2B68002BFBD0236038BD53
:10286000BC08002038B5334B1B6805460C460BB13D
:102870009A6B12B3B4F90C3018079AB225D52169B6
:1028800000292DD012F0010007D00020A06060695F
:102890004042A06139B1002038BD950758BF60693A
:1028A000A0600029F7D1120658BF0846F4D543F0BE
:1028B0004003A3814FF0FF3038BD1846FEF7F4FF08
:1028C000B4F90C3018079AB2D9D4D1062AD55207D8
:1028D00014D4216943F00803A3819AB20029D1D10D
:1028E00002F42070B0F5007FCCD02146284600F0DD
:1028F00013FBB4F90C3021699AB2C3E7216B51B1D3
:1029000004F14002914204D0284600F0E9F9B4F9FC
:102910000C300022226321690022C4E9001223F056
:102920002403D7E7092243F040032A604FF0FF3029
:10293000A38138BD100000202DE9F047DFF880A00A
:102940000646DAF8000098460F469146FFF7F4F97C
:102950001A4B1B68D3F8484124B365681F2D26DC49
:102960005EB96B1C0235DAF80000636044F825702C
:10297000FFF7E4F90020BDE8F08704EB85010123AF
:10298000C1F88890D4F88821AB401A43022EC4F8CD
:102990008821C1F80881E4D1D4F88C211343C4F80C
:1029A0008C31DEE703F5A674C3F84841D5E7DAF8C1
:1029B0000000FFF7C3F94FF0FF30DCE7B03000084C
:1029C0004004002038B5074D0022044608462A601E
:1029D000FDF7BCFE431C00D038BD2B68002BFBD09C
:1029E000236038BDBC08002070B500294BD00646D6
:1029F0000C4610B1836B002B48D0636ED80734D5DA
:102A0000B4F90C30002B3ED02146304600F052F88D
:102A1000E36A054633B1E169304698470028B8BFFC
:102A20004FF0FF35A3891A063BD4216B41B104F165
:102A30004003994202D0304600F052F9002323634C
:102A4000616C21B1304600F04BF900236364FEF75E
:102A5000B1FF636E0022DB07A28127D5A06DFFF7CF
:102A600069F9FEF7ADFF284670BDA3899905CBD45F
:102A7000A06DFFF761F9B4F90C30002BC4D1656E7D
:102A800015F0010508D00025284670BDFEF70CFFA3
:102A9000636ED807B4D4E8E7A06DFFF74FF9284676
:102AA00070BD2169304600F01BF9BEE7A06DFFF74D
:102AB00045F9D3E7B1F90C202DE9F0410C46110797
:102AC000804647D4636842F40062002BA2815EDD39
:102AD000A56A002D58D00023D8F80060C8F800304F
:102AE00093B212F4805256D10123E1694046A847BF
:102AF000431C67D0A389A56A5F0705D56368C01A20
:102B0000236B0BB1E36BC01AE16902460023404618
:102B1000A847411C41D1D8F80030002B3DD01D2BD7
:102B200001D0162B56D1A3892269226023F40063B9
:102B300000216160A381216BC8F8006021B304F11A
:102B40004003994202D0404600F0CAF800202063BA
:102B5000BDE8F0812669BEB193B2256826609A0768
:102B60000CBF63690023AD1BA3600BE02B4632460C
:102B7000E169676A4046B847B0F1000CA5EB0C0567
:102B8000664417DD002DF1DC0020BDE8F081E36B29
:102B9000002B9DDCF8E7206DAEE7B4F90C3022691C
:102BA000226023F40063A3810022DB046260C2D5AB
:102BB0002065C0E7A38943F040034FF0FF30A381B5
:102BC000BDE8F081D8F80030002B93D01D2B06D043
:102BD000162B04D0A38943F04003A381D5E7C8F89E
:102BE0000060D1E738B50C46054608B1836BA3B148
:102BF000B4F90C00B8B1636EDB0701D4810515D5BB
:102C000028462146FFF756FF636EDA07054602D4D1
:102C1000A3899B050ED5284638BDFEF745FEB4F9BD
:102C20000C000028E7D10546284638BDA06DFFF707
:102C300083F8E5E7A06DFFF781F8284638BD00BFAF
:102C4000F8B5244F0C460646FFF7A6FBBA68556850
:102C5000C4F57E630F3325F003052B4423F47F6313
:102C600023F00F03A3F58054B4F5805F07DB002148
:102C70003046FFF789FDBB682B44984204D03046AC
:102C8000FFF790FB0020F8BD61423046FFF77CFD66
:102C900001300DD0104ABB682D1B45F001055D6069
:102CA000136830461B1B1360FFF77CFB0120F8BD47
:102CB00000213046FFF768FDBA68831A0F2BDEDD6E
:102CC00043F001035360054B03491B68C01A0860B9
:102CD000D5E700BF44040020880800204C080020ED
:102CE000002961D0F8B50C460646FFF755FB54F8AD
:102CF000042C7B4FA4F1080522F0010105EB010C27
:102D0000B868DCF80430604523F0030300F08B80E2
:102D1000D207CCF8043032D454F8082CAD1A114440
:102D2000AA6807F1080082426AD00CEB0304D4F8C9
:102D300004E0EC68D4601EF0010FA26000F0978000
:102D400041F001036B60CCF80010B1F5007F35D283
:102D50007A68CB0848090121013381401143796029
:102D600007EBC30257F83310083AC5E9021247F8D7
:102D70003350CD603046BDE8F840FFF713BB0CEB95
:102D800003025268D00710D4194407F10800DCF898
:102D90000830834273D0DCF80C20DA60936041F095
:102DA00001036B606950D0E7704741F00103B1F552
:102DB000007F44F8043CCCF80010C9D3B1F5206F73
:102DC0004FEA512348D28B0903F1390003F138024D
:102DD000C300F818FB580838984259D05A6822F0B6
:102DE00003028A4202D99B689842F7D1D868C5E9A4
:102DF00002308560DD603046BDE8F840FFF7D2BAAA
:102E00000CEB03025268D20763D40B44DCE90212D4
:102E1000CA60916043F001026A603046EB50BDE841
:102E2000F840FFF7BFBA0B44D10707D454F8082C79
:102E3000AD1A1344D5E90212CA60916043F0010251
:102E40006A60284ABD6012689A4293D8264B304681
:102E50001968FFF7F5FE8DE7142B0AD9542B1FD8FC
:102E60000B0B03F16F0003F16E02C300B1E71944CD
:102E70008DE703F15C0003F15B02C300A9E741F0B9
:102E80000103C7E90455C5E902006B60695071E7A9
:102E900079689210012404FA02F20A437A60A6E7E4
:102EA000B3F5AA7F06D8CB0B03F1780003F17702C4
:102EB000C3008EE740F25452934206D88B0C03F1C4
:102EC0007D0003F17C02C30083E74FF47E737E2212
:102ED0007FE741F001036B60CCF800104AE700BFC8
:102EE0004404002050080020B808002038B50C46E3
:102EF000084D8446114620461A4600232B6064463E
:102F0000FDF730FC431C00D038BD2B68002BFBD0F4
:102F1000236038BDBC0800202DE9F0418B890C46A8
:102F2000990796B008D504F143030122C4E904329D
:102F3000236016B0BDE8F081B4F90E1000290646F2
:102F400027DB6A4600F06EF8002821DB019D05F4BE
:102F50007045A5F50055B5FA85F54FF480686D0903
:102F60004FF4006741463046FEF7EAFEB4F90C30F4
:102F7000F0B1204AF26343F08003C4F81480A381C7
:102F80002060206135BB3B43A38116B0BDE8F081D2
:102F9000A38913F0800519D04FF040084146304610
:102FA000FEF7CEFE0025B4F90C302F460028E0D104
:102FB0009A05BED423F0030304F1430243F0020355
:102FC0000121C4E90421A3812260B2E74FF48068A3
:102FD0002F46C7E7B4F90E10304600F039F810B9A3
:102FE000B4F90C30CFE7A38923F0030343F00103C6
:102FF0001BB2C8E79D18000838B50C46084D84463A
:10300000114620461A4600232B606446FDF782FBDA
:10301000431C00D038BD2B68002BFBD0236038BD8B
:10302000BC08002070B50C46084D0346002620461B
:1030300011461C462E60FDF78DFB431C00D070BD71
:103040002B68002BFBD0236070BD00BFBC080020A4
:1030500038B5074D0022044608462A60FDF780FB7C
:10306000431C00D038BD2B68002BFBD0236038BD3B
:10307000BC080020F8B500BFF8BC08BC9E467047ED
:0C308000F8B500BFF8BC08BC9E467047C5
:10308C000000000001020304010203040607080902
:10309C0048656C6C6F2053544D3332483734335A77
:0C30AC0049000000180000200A0000008D
:0830B8007D180008E502000884
:0430C000C102000841
:1030C4000090D0030090D003010000001000000025
:1030D400180000200000000000000000040300208D
:1030E4006C030020D4030020000000000000000056
:1030F40000000000000000000000000000000000CC
:1031040000000000000000000000000000000000BB
:1031140000000000000000000000000000000000AB
:10312400000000000000000000000000000000009B
:10313400000000000000000000000000000000008B
:10314400000000000000000000000000000000007B
:10315400000000000000000000000000000000006B
:10316400000000000000000000000000000000005B
:10317400000000000000000000000000000000004B
:1031840001000000000000000E33CDAB34126DE6E8
:10319400ECDE05000B000000000000000000000051
:1031A400000000000000000000000000000000001B
:1031B400000000000000000000000000000000000B
:1031C40000000000000000000000000000000000FB
:1031D40000000000000000000000000000000000EB
:1035040078080020000000000000000044040020AF
:10351400440400204C0400204C04002054040020E7
:10352400540400205C0400205C0400206404002097
:10353400640400206C0400206C0400207404002047
:10354400740400207C0400207C04002084040020F7
:10355400840400208C0400208C04002094040020A7
:10356400940400209C0400209C040020A404002057
:10357400A4040020AC040020AC040020B404002007
:10358400B4040020BC040020BC040020C4040020B7
:10359400C4040020CC040020CC040020D404002067
:1035A400D4040020DC040020DC040020E404002017
:1035B400E4040020EC040020EC040020F4040020C7
:1035C400F4040020FC040020FC0400200405002076
:1035D400040500200C0500200C0500201405002023
:1035E400140500201C0500201C05002024050020D3
:1035F400240500202C0500202C0500203405002083
:10360400340500203C0500203C0500204405002032
:10361400440500204C0500204C05002054050020E2
:10362400540500205C0500205C0500206405002092
:10363400640500206C0500206C0500207405002042
:10364400740500207C0500207C05002084050020F2
:10365400840500208C0500208C05002094050020A2
:10366400940500209C0500209C050020A405002052
:10367400A4050020AC050020AC050020B405002002
:10368400B4050020BC050020BC050020C4050020B2
:10369400C4050020CC050020CC050020D405002062
:1036A400D4050020DC050020DC050020E405002012
:1036B400E4050020EC050020EC050020F4050020C2
:1036C400F4050020FC050020FC0500200406002071
:1036D400040600200C0600200C060020140600201E
:1036E400140600201C0600201C06002024060020CE
:1036F400240600202C0600202C060020340600207E
:10370400340600203C0600203C060020440600202D
:10371400440600204C0600204C06002054060020DD
:10372400540600205C0600205C060020640600208D
:10373400640600206C0600206C060020740600203D
:10374400740600207C0600207C06002084060020ED
:10375400840600208C0600208C060020940600209D
:10376400940600209C0600209C060020A40600204D
:10377400A4060020AC060020AC060020B4060020FD
:10378400B4060020BC060020BC060020C4060020AD
:10379400C4060020CC060020CC060020D40600205D
:1037A400D4060020DC060020DC060020E40600200D
:1037B400E4060020EC060020EC060020F4060020BD
:1037C400F4060020FC060020FC060020040700206C
:1037D400040700200C0700200C0700201407002019
:1037E400140700201C0700201C07002024070020C9
:1037F400240700202C0700202C0700203407002079
:10380400340700203C0700203C0700204407002028
:10381400440700204C0700204C07002054070020D8
:10382400540700205C0700205C0700206407002088
:10383400640700206C0700206C0700207407002038
:10384400740700207C0700207C07002084070020E8
:10385400840700208C0700208C0700209407002098
:10386400940700209C0700209C070020A407002048
:10387400A4070020AC070020AC070020B4070020F8
:10388400B4070020BC070020BC070020C4070020A8
:10389400C4070020CC070020CC070020D407002058
:1038A400D4070020DC070020DC070020E407002008
:1038B400E4070020EC070020EC070020F4070020B8
:1038C400F4070020FC070020FC0700200408002067
:1038D400040800200C0800200C0800201408002014
:1038E400140800201C0800201C08002024080020C4
:1038F400240800202C0800202C0800203408002074
:10390400340800203C0800203C080020FFFFFFFF93
:0439140000000200AD
:040000050800168554
:00000001FF
