:020000040800F2
:1000000060040020651D0008411C0008431C000816
:10001000451C0008471C0008491C0008000000009F
:100020000000000000000000000000004B1C000861
:100030004D1C0008000000004F1C0008511C000867
:10004000851D0008891D00088D1D0008911D0008F0
:10005000951D0008991D00089D1D0008A11D0008A0
:10006000A51D0008A91D0008AD1D0008B11D000850
:10007000B51D0008B91D0008BD1D0008C11D000800
:10008000C51D0008C91D0008CD1D0008D11D0008B0
:10009000D51D0008D91D0008DD1D0008E11D000860
:1000A000E51D0008E91D0008ED1D0008F11D000810
:1000B000F51D0008F91D0008FD1D0008011E0008BF
:1000C000051E0008091E00080D1E0008111E00086C
:1000D000151E0008191E00081D1E0008211E00081C
:1000E000251E0008291E0008000000002D1E000823
:1000F000311E0008351E0008391E00083D1E00088C
:10010000411E0008451E0008491E00084D1E00083B
:10011000511E0008551E0008591E00085D1E0008EB
:10012000611E0008651E0008691E00086D1E00089B
:10013000711E0008751E0008791E00087D1E00084B
:1001400000000000000000000000000000000000AF
:10015000811E0008851E0008891E00088D1E0008EB
:10016000911E0008951E0008991E00089D1E00089B
:10017000A11E0008A51E0008A91E0008000000001E
:10018000AD1E0008B11E0008B51E0008B91E00080B
:10019000BD1E0008C11E0008C51E0008C91E0008BB
:1001A000CD1E0008D11E0008D51E0008D91E00086B
:1001B000DD1E0008E11E0008E51E0008E91E00081B
:1001C000ED1E0008F11E0008F51E0008F91E0008CB
:1001D000FD1E0008011F0008051F0008091F000878
:1001E0000D1F0008111F0008151F0008191F000827
:1001F0001D1F0008211F0008251F0008291F0008D7
:100200002D1F0008311F0008351F0008391F000886
:100210003D1F0008591C0008411F0008451F000829
:10022000491F00084D1F0008511F00080000000072
:10023000551F0008591F0008000000005D1F00083E
:10024000611F0008651F0008691F00086D1F000876
:10025000711F0008751F0008791F00087D1F000826
:10026000811F0008851F0008891F00088D1F0008D6
:10027000911F0008951F0008991F0008000000004A
:100280009D1F0008A11F0008A51F00080000000016
:1002900000000000A91F00082DE9F8430400002C0D
:1002A00001D101207CE32078C00740F18280DFF893
:1002B000F406056815F03805DFF8EC06D0F8009074
:1002C000102D05D0182D0DD119F00300022809D1E9
:1002D000DFF8D806006880036BD56068002868D115
:1002E00001205DE36068B0F5803F08D1DFF8BC060F
:1002F000006850F48030DFF8B416086038E06068B9
:10030000002810D1DFF8A406006830F48030DFF850
:100310009C160860DFF89406006830F48020DFF84F
:100320008C16086024E06068B0F5A02F10D1DFF8CB
:100330007C06006850F48020DFF870160860DFF853
:100340006C06006850F48030DFF8601608600FE03B
:10035000DFF85806006830F48030DFF85016086087
:10036000DFF84806006830F48020DFF840160860A7
:10037000606800280ED000F02DFB0600DFF82C0688
:100380000068800315D400F025FB801B6528F5D399
:10039000032005E300F01EFB0600DFF810060068EE
:1003A000800306D500F016FB801B6528F5D30320DB
:1003B000F6E22078800740F1A580DFF8E8050568BF
:1003C00015F03805DFF8E005D0F80090002D04D0D6
:1003D000182D38D119F0030F35D1DFF8D00500689A
:1003E000400704D5E068002801D10120D8E200F0E0
:1003F00026FB41F20401884219D2206940280AD123
:10040000DFF8AC05006830F47C3050F40030DFF8E1
:10041000A015086016E0DFF89805006830F47C301D
:10042000216950EA0130DFF8881508600AE0DFF83A
:100430008005006830F0FE40216950EA0160DFF875
:10044000701508605EE0E068002844D0DFF85C05C5
:10045000016831F01901E0680143DFF850050160DF
:1004600000F0B8FA0600DFF844050068400706D43B
:1004700000F0B0FA801B0328F5D3032090E200F0CF
:10048000DEFA41F20401884219D2206940280AD1DB
:10049000DFF81C05006830F47C3050F40030DFF8E1
:1004A0001015086016E0DFF80805006830F47C30AD
:1004B000216950EA0130DFF8F81408600AE0DFF83B
:1004C000F004006830F0FE40216950EA0160DFF876
:1004D000E014086016E0DFF8D4040068400840002B
:1004E000DFF8C814086000F075FA0600DFF8BC04F5
:1004F0000068400706D500F06DFA801B0328F5D38D
:1005000003204DE22078C00640F1A480DFF8940477
:10051000056815F03805DFF89004D0F80090082D34
:1005200005D0182D39D119F00300012835D1DFF895
:100530007C040068C00504D5E069802801D0012052
:100540002EE200F07CFA41F20401884219D2206ABE
:1005500020280AD1DFF85804006830F0F84050F045
:100560008040DFF84C14086016E0DFF844040068AF
:1005700030F0F840216A50EA8160DFF834140860F6
:100580000AE0DFF83004006830F07C50216A50EA5D
:100590000160DFF8201408605CE0E069002842D0C8
:1005A000DFF80804006850F08000DFF800140860ED
:1005B00000F010FA0600DFF8F4030068C00506D466
:1005C00000F008FA801B0328F5D30320E8E100F0CF
:1005D00036FA41F20401884219D2206A20280AD151
:1005E000DFF8CC03006830F0F84050F08040DFF8CE
:1005F000C013086016E0DFF8B803006830F0F84078
:10060000216A50EA8160DFF8A81308600AE0DFF889
:10061000A403006830F07C50216A50EA0160DFF8E2
:100620009413086016E0DFF88403006830F080005F
:10063000DFF87813086000F0CDF90600DFF86C03EE
:100640000068C00506D500F0C5F9801B0328F5D366
:100650000320A5E12078000730D56069002816D076
:10066000DFF85403006850F00100DFF84C13086015
:1006700000F0B0F90600DFF84003006880071DD4E1
:1006800000F0A8F9801B0328F5D3032088E1DFF8E8
:100690002803006840084000DFF81C13086000F0E1
:1006A00099F90600DFF810030068800706D500F00E
:1006B00091F9801B0328F5D3032071E1207880068F
:1006C0002AD5A069002813D0B848006850F480509B
:1006D000B649086000F07EF90600B448006880045E
:1006E0001AD400F077F9801B0328F6D3032057E1D2
:1006F000AE48006830F48050AC49086000F06AF9F8
:100700000600AA480068800406D500F063F9801B43
:100710000328F6D3032043E1207840076CD5A7488F
:10072000006850F48070A549086000F053F9050096
:10073000A2480068C00506D400F04CF9401B6528AB
:10074000F6D303202CE1A068012806D19C4800685C
:1007500050F001009A4908602BE0A06800280CD1F5
:100760009748006840084000954908609448006830
:1007700030F00400924908601BE0A06805280CD105
:100780008F48006850F004008D4908608C4800686C
:1007900050F001008A4908600BE089480068400871
:1007A0004000874908608648006830F004008449AA
:1007B0000860A06800280FD000F00CF906008048FF
:1007C0000068800718D400F005F9801B41F28931D8
:1007D0008842F4D30320E3E000F0FCF806007848F8
:1007E0000068800708D500F0F5F8801B41F28931D8
:1007F0008842F4D30320D3E0606A002800F0CF8061
:100800006848006810F03800182800F09A80606A84
:10081000022840F082806548006830F080706349AB
:10082000086000F0D7F8050060480068800106D530
:1008300000F0D0F8401B0328F6D30320B0E05A485C
:10084000016860480140A06A0143E06A51EA001172
:1008500055480160206B401EC005C00D616B491EEC
:10086000490211F47E410843A16B491E090411F4A9
:10087000FE010843E16B491E090611F0FE410843E1
:100880005149086051480068400840004F490860DD
:100890004F4800686FF3CF00A16C50EAC1004C498B
:1008A00008604A48016831F00C01206C0143474858
:1008B00001604648016831F00201606C0143434821
:1008C00001604248006850F48030404908603F4869
:1008D000006850F400303D4908603C48006850F41E
:1008E00080203A4908603948006850F001003749D3
:1008F00008602E48006850F080702C49086000F0B5
:1009000069F8060029480068800148D400F062F8C0
:10091000801B0328F6D3032042E02448006830F00F
:1009200080702249086000F055F806001F480068F2
:10093000800134D500F04EF8801B0328F6D3032045
:100940002EE01948006807001F4800688046606A6A
:10095000012822D017F00300A16A88421DD1C7F3F5
:100960000510E16A884218D15FEAC850C00D216BBA
:10097000491E884211D1C8F34620616B491E884246
:100980000BD1C8F30640A16B491E884205D1C8F3BC
:100990000660E16B491E884201D0012000E0002082
:1009A000BDE8F2831044025828440258004402581B
:1009B000044402580C440258744402580048025837
:1009C000704402580CFCFFFF304402582C4402587B
:1009D0003444025801480068704700BF5C000020A2
:1009E00010B5032000F0B1F800F068FA0400DFF859
:1009F0005800DFF858100968C1F30321405C10F07B
:100A00001F00C440DFF84000DFF84010096811F013
:100A10000F01405C10F01F002100C140DFF83000E2
:100A20000160DFF8300004600F2000F085FB002833
:100A300001D0012002E000F0ABFB002010BDDFF888
:100A400018000068000C7047541D00081844025834
:100A500008000020040000200010005C10F00703D4
:100A6000DFF830110A684FF6FF010A4052EA03220C
:100A7000DFF824110A43DFF81C110A607047DFF821
:100A800014010068C0F3022070470000010009B2A1
:100A900000290AD4012210F01F018A40DFF8FC105F
:100AA00003001BB25B0941F82320704710B4020019
:100AB00012B2002A05D40A01394B040024B21A5597
:100AC00008E00A01374B040024B214F00F04234459
:100AD00003F8042C10BC704770B4030013F0070433
:100AE000D4F10700052801D3042001E0D4F1070068
:100AF000251D072D01D2002500E0E51E012616FA6E
:100B000000F0401E0140A940012010FA05F56D1EBD
:100B10002A401143080070BC704710B50400601EE5
:100B2000B0F1807F01D301200EE0601E1E490860F5
:100B30000F215FF0FF30FFF7B9FF00201B4908606D
:100B400007201B490860002010BD10B504002000DC
:100B5000FFF784FF10BDF8B504000D001600FFF785
:100B60008EFF0700320029003800FFF7B5FF0100B3
:100B7000200000B2FFF79AFFF1BD10B5040020007D
:100B800000B2FFF783FF10BD10B504002000FFF78F
:100B9000C4FF10BD0CED00E00000FA0500E100E02C
:100BA00000E400E018ED00E014E000E018E000E0F0
:100BB00010E000E0F8B504000D00002C01D1012088
:100BC0007AE1DFF83005006810F00F00A84211D27A
:100BD000DFF820050068000900012843DFF814153C
:100BE0000860DFF81005006810F00F00A84201D07F
:100BF000012061E12078400711D5DFF81405006875
:100C000010F070002169884209D2DFF804050168FC
:100C100031F0700120690143DFF8F40401602078AD
:100C2000000711D5DFF8EC04006810F0700061696E
:100C3000884209D2DFF8DC04016831F07001606994
:100C40000143DFF8D00401602078C00611D5DFF839
:100C5000C404006810F4E060A169884209D2DFF89A
:100C6000B404016831F4E061A0690143DFF8A40431
:100C700001602078800611D5DFF89C04006810F030
:100C80007000E169884209D2DFF88C04016831F014
:100C90007001E0690143DFF880040160207880077B
:100CA00011D5DFF86C04006810F00F00E16888428D
:100CB00009D2DFF85C04016809090901E068014311
:100CC000DFF84C0401602078C0074DD5DFF8400400
:100CD000016831F47061A0680143DFF834040160F9
:100CE0006068022806D1DFF81004006880031CD475
:100CF0000120E1E06068032806D1DFF8FC0300680A
:100D0000800112D40120D7E06068012806D1DFF805
:100D1000E8030068C00508D40120CDE0DFF8D8035F
:100D20000068400701D40120C6E0DFF8D003016865
:100D3000C908C90060680143DFF8C0030160FFF71C
:100D400049FE0600DFF8B403006810F0380061685F
:100D5000B0EBC10F08D0FFF73DFE801B41F2893197
:100D60008842EFD30320A7E02078800711D5E06800
:100D7000DFF89C13096811F00F01884209D2DFF8EF
:100D80009003016809090901E0680143DFF8800365
:100D90000160DFF86003006810F00F00854211D297
:100DA000DFF850030068000900012843DFF844130E
:100DB0000860DFF84003006810F00F00A84201D07F
:100DC000012079E02078400711D52069DFF8401331
:100DD000096811F07001884209D2DFF83403016814
:100DE00031F0700120690143DFF8240301602078AD
:100DF000000711D56069DFF81C13096811F0700154
:100E0000884209D2DFF80C03016831F07001606993
:100E10000143DFF8000301602078C00611D5A06906
:100E2000DFF8F012096811F4E061884209D2DFF8B6
:100E3000E402016831F4E061A0690143DFF8D40203
:100E400001602078800611D5E069DFF8CC120968CE
:100E500011F07001884209D2DFF8BC02016831F05C
:100E60007001E0690143DFF8B002016000F026F88C
:100E70000700DFF8B802DFF898120968C1F3032110
:100E8000405C10F01F00C740DFF8A002DFF88012BE
:100E9000096811F00F01405C10F01F003900C140DB
:100EA000DFF864020160DFF85C020760DFF85C02D3
:100EB000006800F041F9C0B2F2BD000010B4DFF8E4
:100EC0003C02006810F03800002806D0082815D031
:100ED000102816D0182817D000E1DFF81C0200688F
:100EE000800608D5DFF81802DFF80C422468C4F346
:100EF000C104E04001E0DFF80802F0E0DFF8300272
:100F0000EDE0DFF83002EAE0DFF81002006810F0F0
:100F100003000200DFF804020068C0F305100100BE
:100F2000DFF8FC01006810F001000300DFF8F801B1
:100F30000068C0F3CC0000FB03F002EE100AB8EE2C
:100F4000422AB0EE421A002900F0C680002A03D0DF
:100F5000022A72D051D38FE0DFF89C01006880062E
:100F60002BD5DFF89C01DFF890412468C4F3C1045D
:100F7000E04002EE100AF0EE420AB8EE602A02EEFD
:100F8000901AF8EE622A82EE222ADFF898010068B1
:100F9000C005C00D02EE900AF8EE622A9FED513AAC
:100FA00081EE033A72EE832AB7EE003A72EE832A9C
:100FB00022EE222AF0EE421A1EE002EE101AB8EEDD
:100FC000422ADFED492A82EE822ADFF858010068C2
:100FD000C005C00D02EE900AF8EE622A9FED413A7C
:100FE00081EE033A72EE832AB7EE003A72EE832A5C
:100FF00022EE222AF0EE421A5CE002EE101AB8EE5F
:10100000422ADFED3A2A82EE822ADFF818010068D0
:10101000C005C00D02EE900AF8EE622A9FED313A4B
:1010200081EE033A72EE832AB7EE003A72EE832A1B
:1010300022EE222AF0EE421A3CE002EE101AB8EE3E
:10104000422ADFED2B2A82EE822A36480068C0054C
:10105000C00D02EE900AF8EE622A9FED223A81EE70
:10106000033A72EE832AB7EE003A72EE832A22EE3A
:10107000222AF0EE421A1DE002EE101AB8EE422AC1
:10108000DFED1A2A82EE822A26480068C005C00DCC
:1010900002EE900AF8EE622A9FED123A81EE033AD0
:1010A00072EE832AB7EE003A72EE832A22EE222AEB
:1010B000F0EE421A1B480068C0F34620401C02EEC6
:1010C000100AB0EE420AB8EE402A81EE822ABCEE47
:1010D000C22A12EE100A00E0002000E0144810BC02
:1010E00070470000000000460024744C0024744A3D
:1010F00020BCBE4B0020005200440258104402584D
:101100000090D00304000020080000200000002010
:10111000184402581C4402582044025828440258DB
:101120002C4402583044025834440258541D0008DC
:1011300000093D0040787D0110B504001148007899
:10114000002801D101201CE04FF47A700D49097884
:10115000B0FBF1F00C490968B1FBF0F0FFF714FDAA
:10116000002801D001200CE0102C09D2002221001F
:101170005FF0FF30FFF7EFFC04480460002000E060
:10118000012010BD0C000020040000200000002001
:1011900081B01448006850F00200124908601148FC
:1011A000006810F002000090009801B070471CB574
:1011B000040020680C49884213D10C48006850F4A0
:1011C00000300A4908600948006810F400300090B7
:1011D0000098002200217520FFF7BDFC7520FFF765
:1011E000CCFC13BDF444025800440140F0440258C2
:1011F00010B50400002C01D1012035E094F83D0029
:10120000002805D1002084F83C002000FFF7CFFF24
:10121000022084F83D00211D206800F059F90120CA
:1012200084F84800012084F83E00012084F83F0043
:10123000012084F84000012084F84100012084F856
:101240004200012084F84300012084F8440001207A
:1012500084F84500012084F84600012084F8470006
:10126000012084F83D00002010BD010091F83D00F0
:10127000012801D0012043E0022081F83D000868E8
:10128000C06850F001000B68D8600868DFF874305F
:1012900098421CD00868B0F1804F18D00868DFF879
:1012A0006830984213D00868DFF8603098420ED05A
:1012B0000868DFF85C30984209D00868DFF85430DD
:1012C000984204D00868DFF85030984211D108687D
:1012D0008368DFF8480003401A00062A0FD0B2F5F1
:1012E000803F0CD00868006850F001000B6818605F
:1012F00005E00868006850F001000B6818600020E5
:101300007047000000000140000400400008004059
:10131000000C0040000401400018004007000100DC
:1013200010B504002068006980071AD52068C068DD
:10133000800716D57FF00200216808610120207720
:101340002068806910F0030F03D0200000F036F908
:1013500005E0200000F033F9200000F031F9002012
:1013600020772068006940071AD52068C0684007C8
:1013700016D57FF0040021680861022020772068DC
:10138000806910F4407F03D0200000F017F905E0D9
:10139000200000F014F9200000F012F9002020775E
:1013A0002068006900071AD52068C068000716D5B4
:1013B0007FF0080021680861042020772068C06958
:1013C00010F0030F03D0200000F0F8F805E0200033
:1013D00000F0F5F8200000F0F3F8002020772068F6
:1013E0000069C0061AD52068C068C00616D57FF00F
:1013F000100021680861082020772068C06910F477
:10140000407F03D0200000F0D9F805E0200000F074
:10141000D6F8200000F0D4F800202077206800697A
:10142000C00716D52068C068C00712D57FF001003C
:101430002168086101224021DFF8900000F0EFF9F7
:10144000200000F0CBFA00224021DFF8800000F0FD
:10145000E6F92068006900060AD52068C068000621
:1014600006D57FF0800021680861200000F0B9FAFD
:1014700020680069C0050AD52068C068000606D546
:101480007FF4807021680861200000F0ABFA2068CA
:10149000006940060AD52068C068400606D57FF07E
:1014A000400021680861200000F09DFA2068006972
:1014B00080060AD52068C068800606D57FF0200027
:1014C00021680861200000F08FFA10BD0008025862
:1014D0000368DFF8C820904212D0B0F1804F0FD0DF
:1014E000DFF8BC2090420BD0DFF8B820904207D044
:1014F000DFF8B420904203D0DFF8B020904203D14F
:1015000033F070034A681343DFF8902090421ED0F6
:10151000B0F1804F1BD0DFF88820904217D0DFF861
:101520008420904213D0DFF8802090420FD0DFF863
:101530007C2090420BD0DFF87820904207D0DFF873
:101540007420904203D0DFF87020904203D133F42E
:101550004073CA68134333F080034A69134303603E
:101560008A68C2620A688262DFF8302090420FD037
:10157000DFF8382090420BD0DFF83420904207D0BB
:10158000DFF83020904203D0DFF82C20904201D1C8
:101590000A690263012242617047000000000140B5
:1015A0000004004000080040000C0040000401401E
:1015B000004001400044014000480140704770472E
:1015C00070470EE002684368024408305FEAC37C5B
:1015D00044BF4B445B1E52F804CB43F804CB091FB5
:1015E000F9D150F8041B0029ECD17047F8B403007E
:1015F0000025DFF844620868E840002800F00D810B
:1016000008680127AF4038400200002A00F003813B
:101610004868012808D04868022805D04868112881
:1016200002D04868122824D19F685FF0030C28007C
:10163000C0B240001CFA00FC37EA0C07D1F80CC01D
:101640002800C0B240001CFA00FC5CEA07079F605B
:1016500058685FF0010C1CFA05FC30EA0C00D1F868
:1016600004C0CCF3001C1CFA05FC5CEA000004007A
:101670005C60DF685FF0030C2800C0B240001CFA19
:1016800000FC37EA0C07D1F808C02800C0B24000BF
:101690001CFA00FC5CEA0707DF604868022802D0F9
:1016A000486812281ED12800C00803EB8000046A95
:1016B0005FF00F0C15F00700C0B280001CFA00FCB0
:1016C00034EA0C04D1F810C015F00700C0B2800055
:1016D0001CFA00FC5CEA040427002800C00803EBA5
:1016E000800007621C685FF0030C2800C0B2400055
:1016F0001CFA00FC34EA0C0491F804C01CF0030C42
:101700002800C0B240001CFA00FC5CEA04041C6023
:101710004868C00040F17F80DFF82001006850F089
:101720000200DFF818713860DFF81001006810F06F
:10173000020000900098DFF808012F00BF0850F861
:1017400027705FF00F0C15F00300C0B280001CFA88
:1017500000FC37EA0C073B48834201D100242DE00E
:101760003948834201D1012428E03848834201D11D
:10177000022423E03648834201D103241EE0354889
:10178000834201D1042419E03348834201D1052466
:1017900014E03248834201D106240FE030488342EE
:1017A00001D107240AE02F48834201D1082405E033
:1017B0002D48834201D1092400E00A2415F00300DA
:1017C000C0B28000844027431D482C00A40840F884
:1017D0002470306890434C68E40300D510433060B7
:1017E000746894434F68BF0300D5144374605FF07E
:1017F000B040006890434F68FF0200D510435FF08F
:10180000B0442060194C246894434F68BF0200D54F
:101810001443164804606D1CEDE6F1BC70471300DC
:10182000DBB2002B03D00B009BB2836103E00B0003
:101830009BB21B048361704780000058F444025837
:10184000080400580000025800040258000802581A
:10185000000C0258001002580014025800180258D8
:10186000001C0258002002580024025804000058AE
:1018700080B5FFF7B5F800F008F800F07CF800F04C
:101880005BF85048FFF7F1FCFEE780B59CB04C22B6
:10189000002109A800F0A9F82022002101A800F0E9
:1018A000A4F8022000F0ACF8002000904648006840
:1018B00040084000444908604348006810F00100B7
:1018C00000904248006830F4404050F480403F4966
:1018D00008603E48006810F44040009000983B4883
:1018E00000688004FBD50220099001200C90402064
:1018F0000D900020129009A8FEF7CEFC002801D020
:1019000000F06DF83F20019000200290002003902D
:1019100000200490002005900020069000200790F1
:1019200000200890012101A8FFF744F9002801D008
:1019300000F055F81DB000BD80B52548214908606C
:101940003F202049486000201E49886040F2E7306F
:101950001C49C86000201B490861002019494861E2
:101960000020184988611748FFF742FC002801D081
:1019700000F035F801BD80B586B01422002101A821
:1019800000F033F81348006850F004001149086073
:101990001048006810F004000090009800224021D8
:1019A0000D48FFF73CFF40200190012002900020ED
:1019B00003900020049001A90748FFF717FE07B025
:1019C00000BD0000100000202C04005818480258E8
:1019D00000440140E044025800080258704772B6C3
:1019E000FEE7704770477047704710B504461046D1
:1019F0000A460146204600F035F8204610BD00009A
:101A000038B50400DFF85400006840070AD4DFF856
:101A10004C00006810F00700A04201D001201CE03B
:101A200000201AE0DFF834000068C008C00020433E
:101A3000DFF828100860FEF7CDFF0500DFF8200072
:101A40000068800408D4FEF7C5FF401B40F2E9316E
:101A50008842F3D3012000E0002032BD0C48025838
:101A60000448025862F30F2262F31F42401810F03C
:101A7000030308D0C91A1FD3DB0748BF00F8012DA4
:101A800028BF20F8022D130030B414461546103933
:101A900028BF20E93C00FAD8490728BF20E90C00FC
:101AA00048BF40F8042D890028BF20F8022D48BF08
:101AB00000F8012D30BC7047C91818BF00F8012D7F
:101AC000CB0728BF00F8012D70470000364800689A
:101AD00050F47000344908603448006810F00F007A
:101AE000072807D2314800680009000150F00700BC
:101AF0002E4908602E48006850F001002C4908600B
:101B000000202C4908602A4801682B4801402848D9
:101B100001602648006810F00F00082807D323480A
:101B200000680009000150F007002049086000200B
:101B300022490860002022490860002021490860ED
:101B40002148224908602248224908602248234946
:101B500008600020224908601F48224908600020D0
:101B6000214908601C48214908600020204908607C
:101B70000F48006830F480200D49086000201D499E
:101B800008601D480068000C0004B0F1005F02D23C
:101B900001201A49086043F2D200194908605FF039
:101BA000006018490860704788ED00E0002000528E
:101BB00000440258104402587FEDF6EA18440258D7
:101BC0001C440258204402580002020228440258D1
:101BD0000000FF012C4402588002010130440258E9
:101BE00034440258384402583C4402584044025895
:101BF00044440258604402580010005C08810051BF
:101C00000040005208ED00E030B4002512E050F82A
:101C1000042BD30744BF4A44521E091F042942F82B
:101C2000045BFAD213468C0744BF15809B1CC9077E
:101C300048BF1D7050F8041B0029E8D130BC704724
:101C4000FEE7FEE7FEE7FEE7FEE7704770477047F6
:101C500080B500F009F801BD80B50248FFF760FBD0
:101C600001BD000010000020034800680349097806
:101C700040180149086070475C0000200C000020FB
:101C800010B5074979441831064C7C44163404E0F9
:101C90000A68081D114488470146A142F8D110BDC9
:101CA0002C0000004C0000004EF68851CEF20001DE
:101CB000086840F470000860BFF34F8FBFF36F8F68
:101CC0004FF00070E1EE100A704700003DFFFFFF8B
:101CD000500000001000002000000000E7F8FFFFA7
:101CE0001000000090000000000000200000000034
:101CF00000F00DF8002801D0FFF7C2FFAFF300801D
:101D00000020AFF30080FFF7B3FD00F002F80120E0
:101D1000704700F001B800000746384600F002F8AE
:101D2000FBE7000080B5AFF30080024A11001820E5
:101D3000ABBEFBE7260002000548014603B4684637
:101D400080F30988AFF30080FFF7AEFFFFF7D0FF05
:101D5000A5EDF5FE000000000102030401020304EA
:101D6000060708090148804701480047CD1A0008C6
:101D7000391D0008100000000090D0030090D0032F
:101D800001000000FFF7FEBFFFF7FEBFFFF7FEBF39
:101D9000FFF7FEBFFFF7FEBFFFF7FEBFFFF7FEBF77
:101DA000FFF7FEBFFFF7FEBFFFF7FEBFFFF7FEBF67
:101DB000FFF7FEBFFFF7FEBFFFF7FEBFFFF7FEBF57
:101DC000FFF7FEBFFFF7FEBFFFF7FEBFFFF7FEBF47
:0400000508001D3999
:00000001FF
