:020000040800F2
:100000006004002011170008691600086B1600082C
:100010006D1600086F160008711600080000000039
:10002000000000000000000000000000731600083F
:100030007516000800000000771600087916000801
:100040002117000825170008291700082D17000898
:100050003117000835170008391700083D17000848
:100060004117000845170008491700084D170008F8
:100070005117000855170008591700085D170008A8
:100080006117000865170008691700086D17000858
:100090007117000875170008791700087D17000808
:1000A0008117000885170008891700088D170008B8
:1000B0009117000895170008991700089D17000868
:1000C000A1170008A5170008A9170008AD17000818
:1000D000B1170008B5170008B9170008BD170008C8
:1000E000C1170008C517000800000000C917000864
:1000F000CD170008D1170008D5170008D917000838
:10010000DD170008E1170008E5170008E9170008E7
:10011000ED170008F1170008F5170008F917000897
:10012000FD17000801180008051800080918000844
:100130000D180008111800081518000819180008F3
:1001400000000000000000000000000000000000AF
:100150001D18000821180008251800082918000893
:100160002D18000831180008351800083918000843
:100170003D1800084118000845180008000000005C
:10018000491800084D1800085118000855180008B3
:10019000591800085D180008611800086518000863
:1001A000691800086D180008711800087518000813
:1001B000791800087D1800088118000885180008C3
:1001C000891800088D180008911800089518000873
:1001D000991800089D180008A1180008A518000823
:1001E000A9180008AD180008B1180008B5180008D3
:1001F000B9180008BD180008C1180008C518000883
:10020000C9180008CD180008D1180008D518000832
:10021000D91800087D160008DD180008E11800084C
:10022000E5180008E9180008ED18000800000000B3
:10023000F1180008F518000800000000F91800087F
:10024000FD1800080119000805190008091900081F
:100250000D190008111900081519000819190008CE
:100260001D1900082119000825190008291900087E
:100270002D19000831190008351900080000000088
:10028000391900083D190008411900080000000054
:100290000000000045190008F0B5040081B000F02E
:1002A00083822078DFF80C55C10712D52869A96A26
:1002B00000F03800102805D0182804BF01F0030111
:1002C00002296FD129688A0303D56068002800F0ED
:1002D0006B8221788A0722D52869A96A10F0380034
:1002E00005D0182808BF11F0030F40F0AB80296833
:1002F0004A0703D5E068002800F0568200F086FA2D
:1003000041F20401884280F096802069402840F044
:100310008B80686820F47C3040F40030686021787D
:10032000C80624D52869A96A00F03800082806D034
:10033000182804BF01F00301012940F0CB80286890
:10034000C10503D5E269802A40F02E8200F05EFAF2
:1003500041F20401884280F0B580206A202840F0F4
:10036000AA80686820F0F84040F0804068602178FA
:100370000A0740F1F2806069002800F0DC80696FB4
:1003800041F00101696700F04FFA0646686F810786
:1003900000F1E38000F048FA801B0328F6D3032025
:1003A00001B0F0BD6068B0F5803F10D040B9296859
:1003B00021F480312960286820F48020286013E02F
:1003C000B0F5A02F08D1296841F480212960286860
:1003D00040F48030286007E02A6822F480322A60E6
:1003E000296821F480212960606870B100F01CFA4E
:1003F0000646296888033FF56CAF00F015FA801BAC
:100400006528F6D3032001B0F0BD00F00DFA0646D2
:10041000286881037FF55DAF00F006FA801B652830
:10042000F6D3032001B0F0BD696821F47C3141EAC4
:100430000031696073E76868216920F0FE4040EA96
:1004400001606BE7E06818B3296821F019010843DF
:10045000286000F0E9F906462868410707D400F053
:10046000E3F9801B0328F7D3032001B0F0BD00F0AF
:10047000CDF941F20401884203D220694028D3D14A
:1004800047E76868216920F0FE4040EA016045E7DF
:10049000286840084000286000F0C6F90646296830
:1004A00048077FF53CAF00F0BFF9801B0328F6D367
:1004B000032001B0F0BD696821F0F84141EA806194
:1004C000696054E7E868216A20F07C5040EA0160E6
:1004D000E8604CE7E069D8B1296841F08001296003
:1004E00000F0A2F906462868C10507D400F09CF97F
:1004F000801B0328F7D3032001B0F0BD00F086F97C
:1005000041F204018842DDD2206A2028D3D128E7B5
:10051000286820F08000286000F086F906462968E7
:10052000C8057FF524AF00F07FF9801B0328F6D3C0
:10053000032001B0F0BD686F40084000686700F01C
:1005400073F90646686F810707D500F06DF9801BC7
:100550000328F7D3032001B0F0BD21788A0625D502
:10056000A06988B1296841F48051296000F05CF9E4
:1005700006462868810419D400F056F9801B032828
:10058000F7D3032001B0F0BD286820F48050286024
:1005900000F04AF906462968880407D500F044F9B6
:1005A000801B0328F7D3032001B0F0BD207841075A
:1005B00050D5D5F8002442F48072C5F8002400F02C
:1005C00033F90646D5F80004C10507D400F02CF92C
:1005D000801B6528F6D3032001B0F0BDA068012878
:1005E00004D1286F40F00100286713E008B9286F94
:1005F00009E00528286F06D140F004002867296F1C
:1006000041F0010105E0400840002867296F21F012
:1006100004012967A06841F2893668B100F004F945
:100620000746286F810715D400F0FEF8C01BB042C2
:10063000F7D3032001B0F0BD00F0F6F80746286FAD
:10064000810707D500F0F0F8C01BB042F7D30320B4
:1006500001B0F0BD606A002800F0A980296901F0AE
:10066000380118297AD00228286820F08070286084
:1006700066D100F0D9F806462968880107D500F050
:10068000D3F8801B0328F7D3032001B0F0BDA86A7C
:10069000A26A4949E36A0840104340EA0310A8628D
:1006A000616B206BA26B491E4902401EC0F308001B
:1006B000521E01F47E4112040843E16B02F4FE0273
:1006C0001043491E090601F0FE4108432863E86A09
:1006D00040084000E862696BA06C6FF3CF0141EA0B
:1006E000C0016963E96A206C21F00C010143E962F1
:1006F000E96A606C21F002010143E962E96A41F4B0
:100700008031E962E86A40F40030E862E96A41F465
:100710008021E962E86A40F00100E862296841F05E
:100720008071296000F080F80446286881013ED479
:1007300000F07AF8001B0328F7D3032001B0F0BDC6
:1007400000F072F804462968880130D500F06CF892
:10075000001B0328F7D3032001B0F0BD0128A96ACC
:100760002A6B21D0A36A01F00300984202BFC1F3B3
:100770000510E16A884217D1236BC2F308005B1EA3
:10078000984201BFC2F34620616B491E88420BD1DB
:10079000A16BC2F30640491E884201BFC2F3066046
:1007A000E16B491E884202D0012001B0F0BD00205B
:1007B00001B0F0BD004402580CFCFFFF30B581B021
:1007C000032000F037F800F0ADF91249124A0B6827
:1007D000124DC3F30323D45C096801F00F01525C8E
:1007E00004F01F04E0400E4C02F01F0220FA02F356
:1007F000236028600F2000F039FA10B1012001B009
:1008000030BD00F057FA002001B030BD0548006847
:10081000000C704718440258B01500080C00002066
:10082000100000200010005C01484068704700BFC5
:10083000000000202A4B4FF6FF021968000200F466
:10084000E06011400843274908431860704770B4BE
:10085000234B1C68C4F30223C3F10705052D28BFF1
:100860000F2405D20126C3F1070406FA04F4641E1E
:100870001D1D072D34BF0023DB1E2140994001249C
:1008800004FA03F35B1E1A4011430901020003D46A
:100890001548815470BC7047144B02F00F021A4483
:1008A00002F8041C70BC7047010007D4012200F05C
:1008B0001F018A400E4B400943F820207047401E1C
:1008C000B0F1807F01D3012070470A4900224860BF
:1008D000F02081F8130D07238A6000200B60704719
:1008E0000CED00E00000FA0500E400E018ED00E087
:1008F00000E100E010E000E02DE9F043040081B0E9
:10090000884600F0B180DFF84063306800F00F00E7
:1009100040450AD23168090948EA0111316032685C
:1009200002F00F02424540F09F802078DFF81C5310
:1009300041070AD52069AA6902F07002824204D2F6
:10094000A96921F070010843A861207801070AD540
:100950006069EA6902F07002824204D2E96921F01A
:1009600070010843E8612078C1060AD5A069EA69E8
:1009700002F4E062824204D2E96921F4E0610843B2
:10098000E861207881060AD5E0692A6A02F07002DF
:10099000824204D2296A21F070010843286220783B
:1009A00081070AD5E068AA6902F00F02824204D2E8
:1009B000A969090940EA0110A8612078C10736D564
:1009C000AA69A06822F470620243AA6160680228E2
:1009D00002D129688A0308E0032802D129688A0124
:1009E00003E0012806D12968CA0506D4012001B018
:1009F000BDE8F0832B68590736D52A6941F2893959
:100A0000D20840EAC2002861FFF70EFF07462869B6
:100A1000616800F03800B0EBC10F08D0FFF704FFA9
:100A2000C01B4845F3D3032001B0BDE8F083207814
:100A300081070AD5E068AA6902F00F02904204D249
:100A4000A969090940EA0110A861306800F00F00A7
:100A500080450DD23168090948EA011131603268D8
:100A600002F00F02424503D0012001B0BDE8F0833F
:100A7000207841070AD52069AA6902F070029042E5
:100A800004D2A96921F070010843A8612078010708
:100A90000AD56069EA6902F07002904204D2E969FD
:100AA00021F070010843E8612078C1060AD5A069E9
:100AB000EA6902F4E062904204D2E96921F4E0615B
:100AC0000843E861207881060AD5E0692A6A02F0C5
:100AD0007002904204D2296A21F070010843286212
:100AE00000F020F8AA69DFF87811C2F303228B5CCA
:100AF000AC69DFF85C5104F00F04095D01B003F04C
:100B00001F03D840DFF84C3101F01F0120FA01F239
:100B10001A602860DFF844010068BDE8F04300F087
:100B2000A5B80000494A106910F0380004D0102818
:100B30000BD018280BD07DE0116847488B067AD57A
:100B40001168C1F3C101C840704746487047936AB5
:100B5000906AD2F82CC0516B0CF0010CC0F3051058
:100B60000028C1F3CC0111FB0CFC00EE10CAB8EE5A
:100B7000400A60D013F0030302D0022B2BD031E0E7
:100B8000DFED2D0A20EE200A00EE900A1068F8EE44
:100B9000600A81060BD510682F4BC0F3C100C3401B
:100BA00001EE103AB8EE411AC1EE200A03E09FEDC3
:100BB000232AC2EE200A106BF7EE001AC0F30800D9
:100BC00001EE100AB8EE411A31EE000A70EE211A59
:100BD00020EEA10A1FE000EE900AF8EE600A9FEDF9
:100BE000182A05E000EE900AF8EE600A9FED152A3B
:100BF000106BDFED111AC2EE200AC0F3080001EEFF
:100C0000100AB8EE411A00EE211AB7EE000A31EED2
:100C1000000A20EE800A106BC0F34620401C00EE54
:100C2000900AF8EE600A80EE200ABCEEC00A10EED0
:100C3000100A70470C487047000000390024744CBB
:100C400020BCBE4B0024744A0020005200440258CD
:100C50000C000020100000200090D00308000020AD
:100C6000B015000840787D0100093D0030B504460C
:100C70000E4D287881B0B0B10D4A4FF47A711368E7
:100C8000B1FBF0F0B3FBF0F0FFF719FE58B9102CF0
:100C900009D2002221464FF0FF30FFF7D8FDAC60AB
:100CA000002001B030BD012001B030BD00000020A7
:100CB0000C00002081B01448016841F0020101607D
:100CC000006800F002000090009901B070470068D1
:100CD0000E49884200D0704700B581B00C480268C8
:100CE00042F4003202600068002200F400300090FC
:100CF000009975200021FFF7AAFD01B075205DF86D
:100D000004EBFFF7D1BD0000F44402580044014059
:100D1000F044025810B5040001D1012010BD94F830
:100D20003D0028B90021204684F83C10FFF7CFFF92
:100D30000220211D84F83D00206800F02DF90120DB
:100D400084F8480084F83E0084F83F0084F84000AE
:100D500084F8410084F8420084F8430084F8440099
:100D600084F8450084F8460084F8470084F83D0084
:100D7000002010BD90F83D10012901D001207047DE
:100D8000022280F83D200168DFF86820CB6843F03C
:100D90000103CB600168914218BFB1F1804F12D0BE
:100DA000DFF8543099421CBFDFF8502091420AD03E
:100DB000DFF84CC061451FBFDFF848309942DFF8CB
:100DC000482091420FD18A68DFF840100A40062A75
:100DD00018BFB2F5803F0AD002680020116841F0C8
:100DE0000101116070470A6842F001020A600020A8
:100DF000704700000000014000040040000800406F
:100E0000000C0040000401400018004007000100F1
:100E100030B581B00446206801698A0716D5C368D9
:100E2000990713D56FF002020123026123778069CD
:100E300010F0030F204602D000F020F904E000F08B
:100E40001EF9204600F01CF9002020772068016977
:100E50004A0716D5C368590713D56FF00402022359
:100E600002612377806910F4407F204602D000F0B1
:100E700005F904E000F003F9204600F001F9002034
:100E80002077206801690A0716D5C368190713D5AA
:100E90006FF00802042302612377C06910F0030F8A
:100EA000204602D000F0EAF804E000F0E8F820461E
:100EB00000F0E6F80020207720680169CA0616D500
:100EC000C368D90613D56FF0100208230261237797
:100ED000C06910F4407F204602D000F0CFF804E053
:100EE00000F0CDF8204600F0CBF8002020772068F5
:100EF0000169CA0714D5C368D90711D56FF001027B
:100F0000DFF89050026101224021284600F0CEF91E
:100F1000204600F07BFA00224021284600F0C6F966
:100F2000206801690A0608D5C368190605D56FF05F
:100F300080020261204600F06AFA20680169CA0551
:100F400008D5C368190605D56FF480720261204682
:100F500000F05EFA206801694A0608D5C3685906A0
:100F600005D56FF040020261204600F052FA206879
:100F700001698A060BD5C368990608D56FF020026F
:100F80000261204601B0BDE8304000F043BA01B034
:100F900030BD000000080258F0B4DFF8C04005681A
:100FA000A04218BFB0F1804F0FD0DFF8B4209042BC
:100FB0001CBFDFF8B030984207D0DFF8AC60B04219
:100FC0001CBFDFF8A870B84213D14A6825F070053D
:100FD0001543A04218BFB0F1804F1AD0DFF880301F
:100FE00098421FBFDFF87C209042DFF87C60B0425F
:100FF0000FD0DFF8783098421CBFDFF874209042A1
:1010000007D0DFF87060B0421CBFDFF86C70B842E8
:1010100003D1CB6825F440751D434A6925F080054E
:101020001543A04205608B68C3620D681CBFDFF8E2
:101030003C20904285620AD0DFF8343098421FBFCE
:10104000DFF83040A042DFF83020904201D109693A
:10105000016301224261F0BC7047000000000140C2
:101060000004004000080040000C00400004014063
:101070000040014000440140004801407047704773
:1010800070470EE002684368024408305FEAC37CA0
:1010900044BF4B445B1E52F804CB43F804CB091FFA
:1010A000F9D150F8041B0029ECD170472DE9F04F1D
:1010B00081B00E4635684FF000094FF0B041DFF8BF
:1010C000F421DFF8F4314FF00F08002D00F0EB8031
:1010D00005463068012404FA09F4204000F0DC8061
:1010E00077684FEA490C4FF0030E0EFA0CFE6FEAD8
:1010F0000E0E012F18BF022F03D0112F18BF122F71
:1011000013D1AF68D6F80CA00EEA07070AFA0CFA5A
:101110004AEA0707AF606F6827EA04047768C7F3F5
:10112000001707FA09F73C436C60EC68B7680EEAF1
:10113000040407FA0CF73C43EC607468022C18BFF7
:10114000122C14D14FEAD9044FEA890705EB840425
:1011500007F01C0708FA07FBD4F820A02AEA0B0ABC
:10116000D6F810B00BFA07F747EA0A0727622C688F
:101170000EEA040E347904F0030404FA0CFC4CEA81
:101180000E0CC5F800C0D6F804C05FEACC0E40F1E2
:1011900083801C684FEA990C44F002041C601F68AD
:1011A00007F002070097DDF800E052F82C704FEAD4
:1011B000890E0EF00C0E08FA0EF427EA04043F4FD5
:1011C000BD4208BF002731D0DFF8F4A0554508BF65
:1011D00001272BD03B4FBD4208BF022726D0DFF8A6
:1011E000E8A0554508BF032720D0384FBD4208BFAF
:1011F00004271BD0DFF8D8A0554508BF052715D018
:10120000344FBD4208BF062710D0DFF8CCA05545AB
:1012100008BF07270AD0314FBD4208BF082705D0B5
:10122000DFF8BCA055450CBF09270A2707FA0EFEB8
:101230004EEA040E42F82CE0D1F880E074686FEAC0
:10124000000C0CEA0E0EE70348BF40EA0E0EC1F890
:1012500080E0D1F884E074680CEA0E0EA70348BF62
:1012600040EA0E0EC1F884E0D1F800E074680CEAA0
:101270000E0EE70248BF40EA0E0EC1F800E0D1F8BA
:1012800004E00CEA0E0ED6F804C05FEA8C2448BFD6
:1012900040EA0E0EC1F804E0306809F1010930FAA5
:1012A00009F07FF416AF01B0BDE8F08F02B9090470
:1012B0008161704708040058F44402580000025845
:1012C0000004025800080258000C0258001002588E
:1012D0000014025800180258001C0258002002583E
:1012E0000024025810B586B0424CFFF767FA00F0B0
:1012F00036F81422002101A800F08DF83E480022A3
:10130000016841F004010160006800F004000090F1
:10131000009920464021FFF7C9FF40210122019199
:101320000023029201A9039320460493334CFFF754
:10133000BDFE3348002220603F2140F2E733616068
:10134000A2602046E36022616261A261FFF7E2FCD5
:1013500008B172B6FEE72046FFF70CFDFEE700B5C8
:101360009DB04C22002109A800F055F82022002150
:1013700001A800F050F8022000F058F8002000907A
:101380002048016849084900016002681E4802F0CF
:1013900001020092016821F4404141F48041016062
:1013A000026802F440420092009902689304FCD55E
:1013B000022101220991402300210C920D9309A8DA
:1013C0001291FEF769FF08B172B6FEE73F210022D5
:1013D00001910121029201A80392049205920692C2
:1013E00007920892FFF788FA08B172B6FEE71DB0BF
:1013F00000BD000000080258E0440258140000201C
:10140000004401402C0400581848025870477047A7
:1014100070477047704710B5044610460A460146AB
:10142000204600F029F8204610BD000070B5DFF816
:101430004440A1684A0708D4A36803F00703834225
:1014400001D0012070BD002070BDA16840F2E936D6
:10145000C90840EAC100A060FFF7E6F90546206828
:101460008104F0D4FFF7E0F9401BB042F7D301202C
:1014700070BD00000448025862F30F2262F31F425D
:10148000401810F0030308D0C91A1FD3DB0748BF68
:1014900000F8012D28BF20F8022D130030B41446A7
:1014A0001546103928BF20E93C00FAD8490728BF63
:1014B00020E90C0048BF40F8042D890028BF20F81F
:1014C000022D48BF00F8012D30BC7047C91818BF65
:1014D00000F8012DCB0728BF00F8012D7047000050
:1014E00070B42949294BD1F8800040F47000C1F84C
:1014F00080001A6802F00F02072A05D21868000956
:10150000000140F007001860214A002514682148B6
:1015100044F00104146015611668064016601C68EA
:1015200004F00F04072C05D91D682D092D0145F085
:1015300007051D60002000249061174BD0611748FB
:10154000146290621648D362002310635463906360
:10155000D363106413485364146824F48024146023
:1015600013660268120C1204B2F1005F02D201236A
:101570000D48036043F2D2020C4C22604FF000652C
:101580000D6070BC7047000008ED00E000200052C4
:10159000004402587FEDF6EA0000FF01000202025B
:1015A000800201010010005C0881005100400052DF
:1015B00000000000010203040102030406070809F9
:1015C00030B4002512E050F8042BD30744BF4A443E
:1015D000521E091F042942F8045BFAD213468C07F5
:1015E00044BF15809B1CC90748BF1D7050F8041BE1
:1015F0000029E8D130BC704710B50749794418314B
:10160000064C7C44163404E00A68081D11448847DF
:101610000146A142F8D110BD2C0000004C00000092
:101620004EF68851CEF20001086840F47000086060
:10163000BFF34F8FBFF36F8F4FF00070E1EE100AD2
:10164000704700007DFFFFFF4C00000014000020E9
:10165000000000002FFAFFFF14000000A0000000AF
:101660000000002000000000FEE7FEE7FEE7FEE7C6
:10167000FEE770477047704700F006B80148FFF773
:10168000C7BB0000140000200248416802788A1895
:10169000426070470000002000F00DF8002801D0E3
:1016A000FFF7AAFFAFF300800020AFF30080FFF741
:1016B00019FE00F002F80120704700F001B80000A8
:1016C0000746384600F002F8FBE7000080B5AFF3AC
:1016D0000080024A11001820ABBEFBE72600020082
:1016E0000548014603B4684680F30988AFF30080DB
:1016F000FFF796FFFFF7D0FFA5EDF5FE0100000014
:1017000000000000100000000090D0030090D00303
:101710000148804701480047E1140008E11600082D
:10172000FFF7FEBFFFF7FEBFFFF7FEBFFFF7FEBFED
:10173000FFF7FEBFFFF7FEBFFFF7FEBFFFF7FEBFDD
:10174000FFF7FEBFFFF7FEBFFFF7FEBFFFF7FEBFCD
:10175000FFF7FEBFFFF7FEBFFFF7FEBFFFF7FEBFBD
:04000005080016E1F8
:00000001FF
