:020000040800F2
:10000000A004002019140008F5130008F7130008D5
:10001000F9130008FB130008FD130008000000009E
:10002000000000000000000000000000FF130008B6
:100030000114000800000000031400080514000863
:10004000291400082D140008311400083514000884
:10005000391400083D140008411400084514000834
:10006000491400084D1400085114000855140008E4
:10007000591400085D140008611400086514000894
:10008000691400086D140008711400087514000844
:10009000791400087D1400088114000885140008F4
:1000A000891400088D1400089114000895140008A4
:1000B000991400089D140008A1140008A514000854
:1000C000A9140008AD140008B1140008B514000804
:1000D000B9140008BD140008C1140008C5140008B4
:1000E000C9140008CD14000800000000D114000855
:1000F000D5140008D9140008DD140008E114000824
:10010000E5140008E9140008ED140008F1140008D3
:10011000F5140008F9140008FD1400080115000882
:1001200005150008091500080D150008111500082F
:1001300015150008191500081D15000821150008DF
:1001400000000000000000000000000000000000AF
:1001500025150008291500082D150008311500087F
:1001600035150008391500083D150008411500082F
:1001700045150008491500084D150008000000004D
:100180005115000855150008591500085D1500089F
:100190006115000865150008691500086D1500084F
:1001A0007115000875150008791500087D150008FF
:1001B0008115000885150008891500088D150008AF
:1001C0009115000895150008991500089D1500085F
:1001D000A1150008A5150008A9150008AD1500080F
:1001E000B1150008B5150008B9150008BD150008BF
:1001F000C1150008C5150008C9150008CD1500086F
:10020000D1150008D5150008D9150008DD1500081E
:10021000E1150008E5150008E9150008ED150008CE
:10022000F1150008F5150008F91500080000000098
:10023000FD15000801160008000000000516000862
:10024000091600080D1600081116000815160008FA
:10025000191600081D1600082116000825160008AA
:10026000291600082D16000831160008351600085A
:10027000391600083D16000841160008000000006D
:1002800045160008491600084D1600080000000039
:100290000000000051160008F0B5040081B000F025
:1002A00083822078DFF80C55C10712D52869A96A26
:1002B00000F03800102805D0182804BF01F0030111
:1002C00002296FD129688A0303D56068002800F0ED
:1002D0006B8221788A0722D52869A96A10F0380034
:1002E00005D0182808BF11F0030F40F0AB80296833
:1002F0004A0703D5E068002800F0568200F086FA2D
:1003000041F20401884280F096802069402840F044
:100310008B80686820F47C3040F40030686021787D
:10032000C80624D52869A96A00F03800082806D034
:10033000182804BF01F00301012940F0CB80286890
:10034000C10503D5E269802A40F02E8200F05EFAF2
:1003500041F20401884280F0B580206A202840F0F4
:10036000AA80686820F0F84040F0804068602178FA
:100370000A0740F1F2806069002800F0DC80696FB4
:1003800041F00101696700F04FFA0646686F810786
:1003900000F1E38000F048FA801B0328F6D3032025
:1003A00001B0F0BD6068B0F5803F10D040B9296859
:1003B00021F480312960286820F48020286013E02F
:1003C000B0F5A02F08D1296841F480212960286860
:1003D00040F48030286007E02A6822F480322A60E6
:1003E000296821F480212960606870B100F01CFA4E
:1003F0000646296888033FF56CAF00F015FA801BAC
:100400006528F6D3032001B0F0BD00F00DFA0646D2
:10041000286881037FF55DAF00F006FA801B652830
:10042000F6D3032001B0F0BD696821F47C3141EAC4
:100430000031696073E76868216920F0FE4040EA96
:1004400001606BE7E06818B3296821F019010843DF
:10045000286000F0E9F906462868410707D400F053
:10046000E3F9801B0328F7D3032001B0F0BD00F0AF
:10047000CDF941F20401884203D220694028D3D14A
:1004800047E76868216920F0FE4040EA016045E7DF
:10049000286840084000286000F0C6F90646296830
:1004A00048077FF53CAF00F0BFF9801B0328F6D367
:1004B000032001B0F0BD696821F0F84141EA806194
:1004C000696054E7E868216A20F07C5040EA0160E6
:1004D000E8604CE7E069D8B1296841F08001296003
:1004E00000F0A2F906462868C10507D400F09CF97F
:1004F000801B0328F7D3032001B0F0BD00F086F97C
:1005000041F204018842DDD2206A2028D3D128E7B5
:10051000286820F08000286000F086F906462968E7
:10052000C8057FF524AF00F07FF9801B0328F6D3C0
:10053000032001B0F0BD686F40084000686700F01C
:1005400073F90646686F810707D500F06DF9801BC7
:100550000328F7D3032001B0F0BD21788A0625D502
:10056000A06988B1296841F48051296000F05CF9E4
:1005700006462868810419D400F056F9801B032828
:10058000F7D3032001B0F0BD286820F48050286024
:1005900000F04AF906462968880407D500F044F9B6
:1005A000801B0328F7D3032001B0F0BD207841075A
:1005B00050D5D5F8002442F48072C5F8002400F02C
:1005C00033F90646D5F80004C10507D400F02CF92C
:1005D000801B6528F6D3032001B0F0BDA068012878
:1005E00004D1286F40F00100286713E008B9286F94
:1005F00009E00528286F06D140F004002867296F1C
:1006000041F0010105E0400840002867296F21F012
:1006100004012967A06841F2893668B100F004F945
:100620000746286F810715D400F0FEF8C01BB042C2
:10063000F7D3032001B0F0BD00F0F6F80746286FAD
:10064000810707D500F0F0F8C01BB042F7D30320B4
:1006500001B0F0BD606A002800F0A980296901F0AE
:10066000380118297AD00228286820F08070286084
:1006700066D100F0D9F806462968880107D500F050
:10068000D3F8801B0328F7D3032001B0F0BDA86A7C
:10069000A26A4949E36A0840104340EA0310A8628D
:1006A000616B206BA26B491E4902401EC0F308001B
:1006B000521E01F47E4112040843E16B02F4FE0273
:1006C0001043491E090601F0FE4108432863E86A09
:1006D00040084000E862696BA06C6FF3CF0141EA0B
:1006E000C0016963E96A206C21F00C010143E962F1
:1006F000E96A606C21F002010143E962E96A41F4B0
:100700008031E962E86A40F40030E862E96A41F465
:100710008021E962E86A40F00100E862296841F05E
:100720008071296000F080F80446286881013ED479
:1007300000F07AF8001B0328F7D3032001B0F0BDC6
:1007400000F072F804462968880130D500F06CF892
:10075000001B0328F7D3032001B0F0BD0128A96ACC
:100760002A6B21D0A36A01F00300984202BFC1F3B3
:100770000510E16A884217D1236BC2F308005B1EA3
:10078000984201BFC2F34620616B491E88420BD1DB
:10079000A16BC2F30640491E884201BFC2F3066046
:1007A000E16B491E884202D0012001B0F0BD00205B
:1007B00001B0F0BD004402580CFCFFFF30B581B021
:1007C000032000F037F800F0A1F91249124A0B6833
:1007D000124DC3F30323D45C096801F00F01525C8E
:1007E00004F01F04E0400E4C02F01F0220FA02F356
:1007F000236028600F2000F02DFA10B1012001B015
:1008000030BD00F04BFA002001B030BD0548006853
:10081000000C704718440258BC1200080C0000205D
:10082000100000200010005C01484068704700BFC5
:1008300000000020254B4FF6FF021968000200F46B
:10084000E06011400843224908431860704770B4C3
:100850001E4B1C68C4F30223C3F10705052D28BFF6
:100860000F2405D20126C3F1070406FA04F4641E1E
:100870001D1D072D34BF0023DB1E2140994001249C
:1008800004FA03F35B1E1A4011430901020003D46A
:100890001048815470BC70470F4B02F00F021A448D
:1008A00002F8041C70BC7047401EB0F1807F01D379
:1008B00001207047094900224860F02081F8130D9B
:1008C00007238A6000200B60704700000CED00E0F9
:1008D0000000FA0500E400E018ED00E010E000E0A0
:1008E0002DE9F043040081B0884600F0B180DFF8C4
:1008F0004063306800F00F0040450AD231680909B2
:1009000048EA01113160326802F00F02424540F0BE
:100910009F802078DFF81C5341070AD52069AA6917
:1009200002F07002824204D2A96921F070010843EA
:10093000A861207801070AD56069EA6902F07002AF
:10094000824204D2E96921F070010843E86120780D
:10095000C1060AD5A069EA6902F4E062824204D2C3
:10096000E96921F4E0610843E861207881060AD54D
:10097000E0692A6A02F07002824204D2296A21F0F8
:10098000700108432862207881070AD5E068AA69C7
:1009900002F00F02824204D2A969090940EA01105B
:1009A000A8612078C10736D5AA69A06822F47062D0
:1009B0000243AA616068022802D129688A0308E01C
:1009C000032802D129688A0103E0012806D1296899
:1009D000CA0506D4012001B0BDE8F0832B68590791
:1009E00036D52A6941F28939D20840EAC200286125
:1009F000FFF71AFF07462869616800F03800B0EB7E
:100A0000C10F08D0FFF710FFC01B4845F3D30320E8
:100A100001B0BDE8F083207881070AD5E068AA69B3
:100A200002F00F02904204D2A969090940EA0110BC
:100A3000A861306800F00F0080450DD231680909C7
:100A400048EA01113160326802F00F02424503D0DA
:100A5000012001B0BDE8F083207841070AD5206964
:100A6000AA6902F07002904204D2A96921F07001D3
:100A70000843A861207801070AD56069EA6902F095
:100A80007002904204D2E96921F070010843E861E4
:100A90002078C1060AD5A069EA6902F4E0629042B2
:100AA00004D2E96921F4E0610843E8612078810615
:100AB0000AD5E0692A6A02F07002904204D2296ADB
:100AC00021F070010843286200F020F8AA69DFF8DD
:100AD0007811C2F303228B5CAC69DFF85C5104F03F
:100AE0000F04095D01B003F01F03D840DFF84C315B
:100AF00001F01F0120FA01F21A602860DFF84401BA
:100B00000068BDE8F04300F0A5B80000494A10694C
:100B100010F0380004D010280BD018280BD07DE03E
:100B2000116847488B067AD51168C1F3C101C840E6
:100B3000704746487047936A906AD2F82CC0516B50
:100B40000CF0010CC0F305100028C1F3CC0111FB1F
:100B50000CFC00EE10CAB8EE400A60D013F003039C
:100B600002D0022B2BD031E0DFED2D0A20EE200A3F
:100B700000EE900A1068F8EE600A81060BD5106846
:100B80002F4BC0F3C100C34001EE103AB8EE411A3A
:100B9000C1EE200A03E09FED232AC2EE200A106B6B
:100BA000F7EE001AC0F3080001EE100AB8EE411A81
:100BB00031EE000A70EE211A20EEA10A1FE000EECD
:100BC000900AF8EE600A9FED182A05E000EE900A00
:100BD000F8EE600A9FED152A106BDFED111AC2EED8
:100BE000200AC0F3080001EE100AB8EE411A00EE28
:100BF000211AB7EE000A31EE000A20EE800A106BCF
:100C0000C0F34620401C00EE900AF8EE600A80EE29
:100C1000200ABCEEC00A10EE100A70470C4870475C
:100C2000000000390024744C20BCBE4B0024744AE0
:100C300000200052004402580C0000201000002048
:100C40000090D00308000020BC12000840787D010D
:100C500000093D0030B504460E4D287881B0B0B192
:100C60000D4A4FF47A711368B1FBF0F0B3FBF0F06A
:100C7000FFF71AFE58B9102C09D2002221464FF076
:100C8000FF30FFF7E4FDAC60002001B030BD012073
:100C900001B030BD000000200C00002081B00648EB
:100CA000016841F002010160006800F0020000905C
:100CB000009901B0704700BFF44402582DE9F04F8D
:100CC00081B00E4635684FF000094FF0B041DFF8B3
:100CD0000422DFF804324FF00F08002D00F0EB8003
:100CE00005463068012404FA09F4204000F0DC8055
:100CF00077684FEA490C4FF0030E0EFA0CFE6FEACC
:100D00000E0E012F18BF022F03D0112F18BF122F64
:100D100013D1AF68D6F80CA00EEA07070AFA0CFA4E
:100D20004AEA0707AF606F6827EA04047768C7F3E9
:100D3000001707FA09F73C436C60EC68B7680EEAE5
:100D4000040407FA0CF73C43EC607468022C18BFEB
:100D5000122C14D14FEAD9044FEA890705EB840419
:100D600007F01C0708FA07FBD4F820A02AEA0B0AB0
:100D7000D6F810B00BFA07F747EA0A0727622C6883
:100D80000EEA040E347904F0030404FA0CFC4CEA75
:100D90000E0CC5F800C0D6F804C05FEACC0E40F1D6
:100DA00083801C684FEA990C44F002041C601F68A1
:100DB00007F002070097DDF800E052F82C704FEAC8
:100DC000890E0EF00C0E08FA0EF427EA0404434FC5
:100DD000BD4208BF002731D0DFF804A1554508BF48
:100DE00001272BD03F4FBD4208BF022726D0DFF896
:100DF000F8A0554508BF032720D03C4FBD4208BF8F
:100E000004271BD0DFF8E8A0554508BF052715D0FB
:100E1000384FBD4208BF062710D0DFF8DCA055458B
:100E200008BF07270AD0354FBD4208BF082705D0A5
:100E3000DFF8CCA055450CBF09270A2707FA0EFE9C
:100E40004EEA040E42F82CE0D1F880E074686FEAB4
:100E5000000C0CEA0E0EE70348BF40EA0E0EC1F884
:100E600080E0D1F884E074680CEA0E0EA70348BF56
:100E700040EA0E0EC1F884E0D1F800E074680CEA94
:100E80000E0EE70248BF40EA0E0EC1F800E0D1F8AE
:100E900004E00CEA0E0ED6F804C05FEA8C2448BFCA
:100EA00040EA0E0EC1F804E0306809F1010930FA99
:100EB00009F07FF416AF01B0BDE8F08F02B9090464
:100EC00081617047426901EA0203914341EA0341AB
:100ED0008161704708040058F44402580000025829
:100EE0000004025800080258000C02580010025872
:100EF0000014025800180258001C02580020025822
:100F00000024025870B586B0434DFFF757FC00F03F
:100F100039F81422002101A8642600F087F83F4820
:100F20000022016841F004010160006800F0040043
:100F30000090009928464021FFF7C0FF4021012280
:100F400001910023029201A9039328460493FFF71D
:100F5000B5FE40212846FFF7B5FF642400F070F885
:100F60002F4980FB0121491101EBD17106FB1100D2
:100F7000401C00F0B3F8641EF0D140212846FFF772
:100F8000A1FFE6E700B59DB04C22002109A800F0C2
:100F90004DF82022002101A800F048F8022000F0BE
:100FA000B7F8002000901F48016849084900016017
:100FB00002681D4802F001020092016821F44041DC
:100FC00041F480410160026802F4404200920099BD
:100FD00002689304FCD502210122099140230021DB
:100FE0000C920D9309A81291FFF756F908B172B649
:100FF000FEE73F21002201910121029201A8039204
:1010000004920592069207920892FFF769FC08B1D4
:1010100072B6FEE71DB000BD00080258E044025859
:101020001F85EB512C0400581848025810B504468F
:1010300010460A460146204600F090F8204610BDB2
:10104000F0B42249224AD1F8807056681078214CB9
:10105000214D6FF0004320BB082005FB06463746B4
:101060001E46B7FBF6F6401E03FB1676F5D10F467B
:10107000102005FB06469C46B6FBFCFC03FB1C66E9
:101080003E601E4657F804CB05FB0C4CBCFBF6F645
:1010900003FB16C6401E47F8046BEAD1CF6F012050
:1010A000107005FB06461C4607F01F07B6FBF4F45C
:1010B00051F8270003FB146641F82760C1F880004F
:1010C000566020F04040F0BC704700001C0000203B
:1010D000140000205FF36E3C0D66190000B581B06E
:1010E0002DED028B08EE100AFFF7AAFF00EE100AA2
:1010F000BAEEC10ADFED050A20EE200AF8EEC80AB2
:10110000BDEC028B80EE200A01B000BD0000C84299
:1011100070B5DFF84440A1684A0708D4A36803F01B
:101120000703834201D0012070BD002070BDA1687B
:1011300040F2E936C90840EAC100A060FFF774FB3D
:10114000054620688104F0D4FFF76EFB401BB042D7
:10115000F7D3012070BD00000448025862F30F224B
:1011600062F31F42401810F0030308D0C91A1FD3BE
:10117000DB0748BF00F8012D28BF20F8022D13001F
:1011800030B414461546103928BF20E93C00FAD87F
:10119000490728BF20E90C0048BF40F8042D89000A
:1011A00028BF20F8022D48BF00F8012D30BC704741
:1011B000C91818BF00F8012DCB0728BF00F8012D72
:1011C00070470EE002684368024408305FEAC37C5F
:1011D00044BF4B445B1E52F804CB43F804CB091FB9
:1011E000F9D150F8041B0029ECD1704770B429499B
:1011F000294BD1F8800040F47000C1F880001A68D3
:1012000002F00F02072A05D218680009000140F019
:1012100007001860214A00251468214844F00104A1
:10122000146015611668064016601C6804F00F040F
:10123000072C05D91D682D092D0145F007051D60F6
:10124000002000249061174BD0611748146290620F
:101250001648D3620023106354639063D363106411
:1012600013485364146824F48024146013660268DD
:10127000120C1204B2F1005F02D201230D48036088
:1012800043F2D2020C4C22604FF000650D6070BC3E
:101290007047000008ED00E00020005200440258B2
:1012A0007FEDF6EA0000FF01000202028002010168
:1012B0000010005C08810051004000520000000056
:1012C00001020304010203040607080930B40025E3
:1012D00012E050F8042BD30744BF4A44521E091FA2
:1012E000042942F8045BFAD213468C0744BF1580E8
:1012F0009B1CC90748BF1D7050F8041B0029E8D18A
:1013000030BC704710B5074979441831064C7C440D
:10131000163404E00A68081D114488470146A142BA
:10132000F8D110BD2C0000004C0000004EF6885192
:10133000CEF20001086840F470000860BFF34F8FE0
:10134000BFF36F8F4FF00070E1EE100A704700009E
:101350007DFFFFFF840000001C0000200000000053
:1013600063FEFFFF1C000000700000000000002072
:101370000000000000F00DF8002801D0FFF7C2FFC8
:10138000AFF300800020AFF30080FFF7BBFD00F05B
:1013900002F80120704700F001B800000746384607
:1013A00000F002F8FBE7000080B5AFF30080024ACE
:1013B00011001820ABBEFBE72600020005480146DD
:1013C00003B4684680F30988AFF30080FFF7AEFFEF
:1013D000FFF7D0FFA5EDF5FE0100000000000000C2
:1013E000100000000090D0030090D0030000000027
:1013F00001000000FEE7FEE7FEE7FEE7FEE77047BC
:101400007047704700F000B80248416802788A18B7
:1014100042607047000000200148804701480047B3
:10142000ED110008BD130008FFF7FEBFFFF7FEBF78
:10143000FFF7FEBFFFF7FEBFFFF7FEBFFFF7FEBFE0
:10144000FFF7FEBFFFF7FEBFFFF7FEBFFFF7FEBFD0
:10145000FFF7FEBFFFF7FEBFFFF7FEBFFFF7FEBFC0
:10146000FFF7FEBFFFF7FEBFFFF7FEBFFFF7FEBFB0
:04165000FFF7FEBFE3
:04000005080013BD1F
:00000001FF
